:100000000C94A4000C94CC000C94CC000C94CC0068
:100010000C94CC000C94CC000C94CC000C94D60422
:100020000C94CC000C94CC000C94CC000C94CC0020
:100030000C94CC000C94CC000C94CC000C94CC0010
:100040000C948C040C9438090C942C030C94060327
:100050000C94CC000C94CC000C94CC000C94CC00F0
:100060000C942E070C94CC00E708C008EA08C308DB
:10007000C608C908CC08CF08D208D608DA08DE08B6
:10008000E20860106310661069106C106F10721037
:10009000751079107B107E10811025003A200042E7
:1000A0006C756500477265656E004261636B6C69D3
:1000B0006768740000000000240027002A00000088
:1000C00000002300260029000000000800020100B3
:1000D000000304070000000000000000576964747A
:1000E000683A004C696E65733A004E00464600530C
:1000F000706C617368204F0042617564206E6F7789
:100100003A004E0046460049676E6F7265205258AD
:10011000204F000102040810204080010204081052
:100120002001020408102000000000250028002BF8
:100130000004040404040404040202020202020390
:10014000030303030300E31211241FBECFEFD8E023
:10015000DEBFCDBF24E0A6E9B1E001C01D92A63903
:10016000B207E1F711E0A0E0B1E0EAEEF7E202C089
:1001700005900D92A639B107D9F710E0C4EAD0E096
:1001800004C02197FE010E947713C33AD107C9F733
:100190000E945C0C0C94F3130C940000CF92DF923D
:1001A000EF92FF920F931F93CF93DF936C017A012D
:1001B0008B01C0E0D0E0CE15DF0589F0D8016D914C
:1001C0008D01D601ED91FC910190F081E02DC601E9
:1001D0000995892B11F47E0102C02196ECCFC7014D
:1001E000DF91CF911F910F91FF90EF90DF90CF9013
:1001F0000895FC01918D828D981761F0828DDF0149
:10020000A80FB11D5D968C91928D9F5F9F73928F09
:1002100090E008958FEF9FEF0895FC01918D828DFE
:10022000981731F0828DE80FF11D858D90E00895CB
:100230008FEF9FEF0895FC01918D228D892F90E023
:10024000805C9F4F821B91098F739927089580EDE1
:1002500093E00E941B0121E0892B09F420E0822F0A
:100260000895FC01848DDF01A80FB11DA35ABF4F73
:100270002C91848D90E001968F739927848FA689A5
:10028000B7892C93A089B1898C9180648C93938DCC
:10029000848D981306C00288F389E02D80818F7DBC
:1002A00080830895EF92FF920F931F93CF93DF9374
:1002B000EC0181E0888F9B8D8C8D981305C0E889B7
:1002C000F989808185FD24C0F62E0B8D10E00F5F2B
:1002D0001F4F0F731127E02E8C8DE8120CC00FB644
:1002E00007FCFACFE889F989808185FFF5CFCE0137
:1002F0000E943101F1CF8B8DFE01E80FF11DE35A11
:10030000FF4FF0820B8FEA89FB898081806207C0F2
:10031000EE89FF896083E889F98980818064808320
:1003200081E090E0DF91CF911F910F91FF90EF90CE
:100330000895CF93DF93EC01888D8823C9F0EA8973
:10034000FB89808185FD05C0A889B9898C9186FDCE
:100350000FC00FB607FCF5CF808185FFF2CFA889CB
:10036000B9898C9185FFEDCFCE010E943101E7CF95
:10037000DF91CF91089580ED93E00E941B01892BBE
:10038000C1F080ED93E00E94F9002091080330E075
:100390002F5F3F4F2F77332790910903921759F31F
:1003A000E0910803F0E0E857FD4F808320930803B5
:1003B000E2CF08950E94270181110C94BB0108959A
:1003C000833081F028F4813099F08230A1F00895D3
:1003D0008730A9F08830B9F08430D1F48091800062
:1003E0008F7D03C0809180008F7780938000089577
:1003F00084B58F7702C084B58F7D84BD08958091C8
:10040000B0008F7703C08091B0008F7D8093B000E3
:1004100008959FB7F8944091310250913202609153
:1004200033027091340286B5A89B06C08F3F21F03D
:100430004F5F5F4F6F4F7F4F9FBF762F652F542FBA
:1004400044279A01AB01280F311D411D511DA5E024
:10045000B0E00E94B713089585ED8093BC008091B1
:10046000BC0084FDFCCF1092060208954091E0018B
:10047000262F30E0240F311D21323105DCF420918C
:1004800006022430C9F4FC0180E090E0861758F49D
:100490003091E0012191DC01A254BE4FA30FB11DA8
:1004A0002C930196F3CF8091E001680F6093E001F7
:1004B00080E0089581E0089582E00895E091BC0114
:1004C000F091BD01309729F01092BB011092BA0152
:1004D00009940895CF93DF93AC01E091B801F091B6
:1004E000B9013097F1F09091B7018091B60198175A
:1004F000C0F090E0292F30E02617370754F4D901D7
:10050000AA56BE4FEA01C20FD31F88818C939F5F0A
:10051000F1CF1092B7016093B601CB01DF91CF917B
:100520000994DF91CF9108950895E091B7018091EA
:10053000B601E81730F4F0E0EA56FE4F808190E013
:1005400008958FEF9FEF08959091B7018091B601C4
:10055000981750F4E92FF0E0EA56FE4F208130E082
:100560009F5F9093B70102C02FEF3FEFC90108953D
:100570008091B60190E02091B701821B9109089506
:10058000CF93DF9300D0CDB7DEB7CB01642F498383
:100590005A830E9436024981842F5A81952F0F90E9
:1005A0000F90DF91CF910895CF93DF931F92CDB736
:1005B000DEB7698361E0CE0101960E94360281E0D8
:1005C00090E00F90DF91CF9108959091B6018091C6
:1005D000B7019817C1F08DE694E00E94A402209123
:1005E000080330E02F5F3F4F2F77332790910903A7
:1005F000921759F3E0910803F0E0E857FD4F80832C
:1006000020930803E2CF08950E947D131F920F925A
:100610000FB60F9211242F933F934F935F936F93D5
:100620007F938F939F93AF93BF93EF93FF9380ED4F
:1006300093E00E943101FF91EF91BF91AF919F91A3
:100640008F917F916F915F914F913F912F910F907B
:100650000FBE0F901F9018951F920F920FB60F921A
:1006600011242F938F939F93EF93FF93E091E003D7
:10067000F091E1038081E091E603F091E70382FDD0
:1006800012C090818091E9038F5F8F732091EA03FC
:10069000821751F0E091E903F0E0E053FC4F958FB1
:1006A0008093E90301C08081FF91EF919F918F9129
:1006B0002F910F900FBE0F901F901895CF93DF933F
:1006C000282F30E0F901E853FF4F8491F901ED5EE6
:1006D000FE4FD491F901EF5CFE4FC491CC2391F011
:1006E00081110E94E001EC2FF0E0EE0FFF1FE254B9
:1006F000FF4FA591B491EC91ED2381E090E021F4BE
:1007000080E002C080E090E0DF91CF9108951F93D8
:10071000CF93DF93282F30E0F901E853FF4F849106
:10072000F901ED5EFE4FD491F901EF5CFE4FC491EB
:10073000CC23C9F0162F81110E94E001EC2FF0E0CC
:10074000EE0FFF1FE95DFE4FA591B4918FB7F894AE
:10075000111105C09C91ED2FE095E92302C0EC91A9
:10076000ED2BEC938FBFDF91CF911F910895CF9325
:10077000DF9390E0FC01ED5EFE4F2491FC01EF5C05
:10078000FE4F8491882361F190E0880F991FFC014E
:10079000EC54FF4FC591D491FC01E95DFE4FA5914A
:1007A000B491611109C09FB7F89488812095822384
:1007B0008883EC912E230BC0623061F49FB7F894CC
:1007C0003881822F809583238883EC912E2B2C9364
:1007D0009FBF06C08FB7F894E8812E2B28838FBF68
:1007E000DF91CF9108951F93CF93DF93182FEB01E3
:1007F00061E00E94B703209711F460E004C0CF3F8E
:10080000D10539F461E0812FDF91CF911F910C94D4
:100810008703E12FF0E0E853FF4FE491E330F9F074
:1008200048F4E130B9F0E230A1F584B5806284BDCE
:10083000C8BD34C0E730E9F0E83019F1E43049F5DB
:1008400080918000806280938000D0938B00C09361
:100850008A0024C084B5806884BDC7BD1FC0809154
:100860008000806880938000D0938900C0938800C6
:1008700015C08091B00080688093B000C093B30031
:100880000DC08091B00080628093B000C093B4002E
:1008900005C0C038D1050CF0B5CFAFCFDF91CF91F7
:1008A0001F9108958F929F92AF92BF92CF92DF9245
:1008B000EF92FF926B017C010E9409024B015C01E7
:1008C000C114D104E104F104F1F00E940902DC0139
:1008D000CB0188199909AA09BB09883E9340A10553
:1008E000B10570F321E0C21AD108E108F10888EEE1
:1008F000880E83E0981EA11CB11CC114D104E10430
:10090000F10419F7DDCFFF90EF90DF90CF90BF900B
:10091000AF909F908F9008951F920F920FB60F92F5
:1009200011242F933F938F939F93AF93BF93809105
:100930002D0290912E02A0912F02B09130023091A1
:100940002C022DE3230F2D3720F40196A11DB11D9C
:1009500005C020EC230F0296A11DB11D20932C028F
:1009600080932D0290932E02A0932F02B093300219
:100970008091310290913202A0913302B091340201
:100980000196A11DB11D8093310290933202A09374
:100990003302B0933402BF91AF919F918F913F91F9
:1009A0002F910F900FBE0F901F9018951F920F92CE
:1009B0000FB60F9211240F931F932F933F934F93D2
:1009C0005F936F937F938F939F93AF93BF93CF93D7
:1009D000DF93EF93FF93809100018F5F809300017D
:1009E000882329F0ECE1F3E020E030E059C00CE18D
:1009F00013E0E2E2F3E0C4E2D3E0CE010197DC01D0
:100A00004C91CF010197DC01411103C028812223C1
:100A1000F9F02C9130E0808190E0B901681B790BEE
:100A20001616170644F4442389F0840F911D82178B
:100A3000930764F40AC0672B49F04881442331F0DE
:100A4000841B9109281739070CF49C01208302C0EC
:100A50008C91808380818823C9F0CF010597DC01C8
:100A60008C91AF0142505109D80112962D913C91C1
:100A70001397D9019C91DA01811103C08C91892BC4
:100A800003C08C9180958923D9018C93075F1F4FF8
:100A900039962996B3E0003D1B0709F0AECFA2CFEF
:100AA000808187FD15C0E901C45EDC4F80910001A3
:100AB0009E8198130DC09981A281B3818C8191117F
:100AC00004C09C918095892302C09C91892B8C93B2
:100AD0003996275F3F4F243B310511F7FF91EF9186
:100AE000DF91CF91BF91AF919F918F917F916F9146
:100AF0005F914F913F912F911F910F910F900FBEDA
:100B00000F901F9018950F931F93CF93DF938C0135
:100B1000C62F6170FC0181890E948703D0E0D595C2
:100B2000C7956C2F6170F80182890E948703D59563
:100B3000C7956C2F6170F80183890E948703D59552
:100B4000C7956C2F6170F80184890E948703F801B2
:100B5000C08581858F3F19F092859111C82F61E082
:100B60008C2F0E94870360E08C2FDF91CF911F9123
:100B70000F910C948703EF92FF920F931F93CF93E3
:100B8000DF93EC01162FF42E088589858F3F19F02D
:100B90009A859111082F8F818F3F29F48CE792E07D
:100BA0000197F1F743C060E089890E94B70360E0D4
:100BB0008A890E94B70360E08B890E94B70360E0D6
:100BC0008C890E94B70361E08F810E94870360E0F7
:100BD0008E810E94870361E0802F0E9487038C89A9
:100BE0000E945E03E82E60E0802F0E94870361E090
:100BF000802F0E94870360E0802F0E94870381E09E
:100C0000E81649F361E089890E94B70361E08A89A7
:100C10000E94B70361E08B890E94B70361E08C8971
:100C20000E94B70360E08F810E9487036F2D8E8141
:100C30000E948703612F607189890E948703612F59
:100C400060728A890E948703612F60748B890E9479
:100C50008703612F60788C890E94870361E0802F71
:100C60000E94870360E0802F0E948703612F6170DC
:100C700089890E948703612F62708A890E94870395
:100C8000612F64708B890E948703612F68708C8943
:100C90000E94870361E0802F0E94870360E0802F1D
:100CA000DF91CF911F910F91FF90EF900C948703EC
:100CB0000F931F93CF93DF93FC0121852F3F39F4CE
:100CC00040E0DF91CF911F910F910C94BB05162F3F
:100CD000EC010285128640E00E94BB0582E08A8713
:100CE00040E0612FCE010E94BB050A87DF91CF91C2
:100CF0001F910F91089540E00C94BB050F931F9333
:100D0000CF93DF93EC018E89841710F44FEF480FD7
:100D10004D876C871E86FE01E40FF11D8789082F21
:100D200000749B85690F8F73680F683214F06852E6
:100D300002C067FD685D062B142F12708A8590E053
:100D4000212F30E08217930741F08B8D8D7F8B8FA1
:100D5000682F6860CE010E947B061A87602F60684A
:100D6000CE01DF91CF911F910F910C947B061F93C1
:100D7000CF93DF93EC01162F8B85811103C08E85F5
:100D8000882329F04D856C85CE010E947E061D309A
:100D900039F01A3029F041E0612FCE010E94BB05E5
:100DA0001E869F858C852D8591110EC08F5F8C8747
:100DB0001D3041F0082E000C990B4D8950E084172E
:100DC00095077CF01C8609C081508C871A3011F081
:100DD00087FF07C08D8981508C872F5F2D8781E029
:100DE0008E872D85022E000C330B8E8990E02817FC
:100DF00039070CF01D8681E090E0DF91CF911F91C3
:100E00000895CF93DF93EC0189858F3FC1F082E095
:100E10008A8761E0CE010E947B061A8661E0CE01DE
:100E20000E947B068F818F3F21F484EA96E101972F
:100E3000F1F740E060E0CE010E947E060BC061E069
:100E4000CE010E947B068F818F3F21F484EA96E1D8
:100E50000197F1F71B86DF91CF9108951F920F92B2
:100E60000FB60F9211242F933F934F935F936F937D
:100E70007F938F939F93AF93BF93EF93FF93809153
:100E8000B900887F803609F49CC068F5883209F47F
:100E90005BC090F4803109F454C038F4882309F41D
:100EA000F6C0883009F44DC0F6C0883109F44CC052
:100EB000803209F45DC0EFC0803409F468C048F4A2
:100EC000803309F455C0883309F0E5C080930502EA
:100ED000D8C0803509F44FC0883509F45DC0883426
:100EE00009F0D9C0D6C0883909F4C7C0A8F488373A
:100EF00009F467C038F4883609F463C0803709F410
:100F000060C0C9C0883809F4B8C0803909F45FC02E
:100F1000803809F0C0C05BC0803B09F486C038F45B
:100F2000803A09F466C0883A09F47FC0B4C0803CB6
:100F300009F4A7C0883C09F4A4C0883B09F48AC01E
:100F4000AAC080912B0210C090912A0280912902A0
:100F5000981770F5E0912A0281E08E0F80932A02A3
:100F6000F0E0E75FFD4F80818093BB0085EC86C099
:100F7000809305028EC0E0912A0281E08E0F80935B
:100F80002A028091BB00F0E0E75FFD4F80839091E3
:100F90002A02809129026EC0E0912A0281E08E0F20
:100FA00080932A028091BB00F0E0E75FFD4F8083D1
:100FB0008091080281116DC081E08093070284EA6C
:100FC00061C083E08093060210920402CFCF80912B
:100FD0000402803208F051C0E091040281E08E0FDB
:100FE000809304028091BB00F0E0EC51FE4F8083BF
:100FF000BDCF85EC8093BC00109206028091040264
:10100000803230F4E0910402F0E0EC51FE4F1082A7
:101010006091040270E0E091E201F091E30184EE5E
:1010200091E009951092040236C084E08093060294
:101030001092E1011092E001E091DE01F091DF01F8
:1010400009958091E001811105C081E08093E00164
:101050001092BE01E091E10181E08E0F8093E101E9
:10106000F0E0E254FE4F80818093BB009091E1015B
:101070008091E001981708F479CF85E88093BC004F
:101080000AC085EC8093BC001092060204C0109246
:1010900005020E942C02FF91EF91BF91AF919F91A9
:1010A0008F917F916F915F914F913F912F910F9011
:1010B0000FBE0F901F9018950C948A130C948213F6
:1010C0008F929F92AF92BF92CF92DF92EF92FF9258
:1010D000CF936C018FB7F89480902D0290902E02E0
:1010E000A0902F02B09030028FBF0D2C000CEE08A4
:1010F000FF082FB7F89480912D0290912E02A091B5
:101100002F02B09130022FBF88199909AA09BB0993
:10111000C816D906EA06FB06F8F0A895C4E661E011
:1011200070E080E090E00E9452042FB7F894809124
:101130002D0290912E02A0912F02B09130022FBF6C
:1011400088199909AA09BB098C159D05AE05BF052B
:1011500080F6C15021F7CDCFA895CF91FF90EF90A9
:10116000DF90CF90BF90AF909F908F90089590E0C8
:101170008D30910558F5FC01EC5CFF4F0C94771312
:1011800060E679E029C060E875E226C060E478E3B3
:1011900023C060E07BE420C060E076E91DC060E031
:1011A00071EE1AC060E072EC81E017C060E074E894
:1011B00083E013C060E078E087E00FC060E070E19A
:1011C0008EE00BC060E472E48FE007C0089560EB2E
:1011D00074E002C060EC72E180E090E0089589E084
:1011E00090E00E945E08181634F062E789E090E013
:1011F0000E945C0882E7880F8093BA008EE592E037
:101200009093DF018093DE018AE692E09093E30100
:101210008093E2011092B7011092B6011092BB01C7
:101220001092BA011092060281E080930802109297
:10123000070261E082E10E94870361E083E10E948E
:1012400087038091B9008E7F8093B9008091B900A7
:101250008D7F8093B9008FE28093B80085E48093FE
:10126000BC0085EE92E09093B9018093B801089597
:101270001F920F920FB60F9211242F933F938F93CB
:101280009F93EF93FF932EB58091080390E0019612
:101290008F77992730910903381741F0E0910803BF
:1012A000F0E0E857FD4F208380930803FF91EF9112
:1012B0009F918F913F912F910F900FBE0F901F9094
:1012C0001895CF9389E794E00E94010740E060E021
:1012D00089E794E00E947E06C0E08C2F90E0209188
:1012E000850260918602269F900111248217930740
:1012F00054F4FC01EB5CFD4F608189E794E00E94AF
:10130000B706CF5FEACF809187020E946B13482F08
:10131000692F89E794E0CF910C947E0610928702A2
:101320008091860220918502829F9001112440E0E5
:1013300050E2842F90E08217930734F4FC01EB5CB9
:10134000FD4F50834F5FF5CF0895EF92FF920F93BB
:101350001F93CF93DF9300D0CDB7DEB77C0162300F
:1013600010F028E001C020E092E164E97AE3FB019B
:101370003197F1F79150D9F760E0F70186812A8320
:1013800049830E94870360E04981842F0E9487037C
:1013900060E0F70186810E94870363E0C7010E9435
:1013A00083058CE097E20197F1F763E0C7010E94A3
:1013B000830508E211E0C8010197F1F763E0C70176
:1013C0000E948305C8010197F1F762E0C7010E94FE
:1013D0008305C8010197F1F72A81622F6062C70176
:1013E0000E947B0684E0F701838F6CE0C7010E94B6
:1013F0005806C7010E94010782E0F701848F66E06A
:10140000C7010F900F90DF91CF911F910F91FF9027
:10141000EF900C947B06009769F0FC01019000208E
:10142000E9F73197AF01481B590BBC0189E794E0FC
:101430000C94CE0080E090E00895CF92DF92EF927E
:10144000FF926B017C0160E070E38AE290E0A7010B
:1014500096010E94C213DA01C9010197A109B109DD
:10146000B695A795979587959C01E091E003F0913B
:10147000E10382E08083211580E13807B8F0E09134
:10148000E003F091E103108260E078E185E190E013
:10149000A70196010E94C213DA01C9010197A109AF
:1014A000B109B695A795979587959C01E091DC03C6
:1014B000F091DD033083E091DE03F091DF032083C0
:1014C0001092E803E091E403F091E50386E0808365
:1014D000E091E203F091E303808180618083E091F9
:1014E000E203F091E303808188608083E091E2036E
:1014F000F091E303808180688083E091E203F091C2
:10150000E30380818F7D8083FF90EF90DF90CF9009
:1015100008951F93CF93DF93EC01142F6D8B6D8390
:101520004E8B4C838F89860F898F888D680F6A8FC9
:101530004885612FCE010E94A50949854F3F61F082
:10154000198E80E48A8F82E08A87612FCE01DF9135
:10155000CF911F910C94A509DF91CF911F91089510
:10156000ECE1F3E020E030E0AFEF9081933051F414
:1015700099E0929FF001939FF00D1124E45EFC4FDF
:1015800085830895AF3F11F497FDA22F2F5F3F4F42
:1015900039962431310549F7AF3F79F199E0A90235
:1015A000D0011124A45EBC4F93E09C9390911B0347
:1015B00011969C931197E4E3F1E0E491F0E0EE0FD3
:1015C000FF1FE95DFE4F2591349113963C932E93B6
:1015D0001297E6E1F1E0E4911496EC9314971596D6
:1015E0008C93911102C060E001C061E083E00E9431
:1015F000870361E083E00C94B7030895DF92EF92D4
:10160000FF920F931F93CF93DF9387709091820483
:10161000682F70E09F3FB9F493E0660F771F9A95AB
:10162000E1F7606489E794E00E947B06C3E1D3E0C0
:10163000699141E089E794E00E94BB0583E0CB31EA
:10164000D807B1F733C0D09083041092830483E0AD
:10165000660F771F8A95E1F7C62FC0646C2F89E764
:1016600094E00E947B0603E113E07801D8E0D00FFC
:10167000F70161917F0141E089E794E00E94BB0599
:10168000DE11F6CF82E0809383046C2F89E794E02B
:101690000E947B06F80161918F0141E089E794E0A7
:1016A0000E94BB05D013F6CFD0928304DF91CF9177
:1016B0001F910F91FF90EF90DF9008950F931F936C
:1016C000CF93DF938C01C0E0D0E0F801EC0FFD1F59
:1016D0006491662371F0E0917904F0917A040190AD
:1016E000F081E02D89E794E00995892B11F021968E
:1016F000ECCFCE01DF91CF911F910F9108958F9282
:101700009F92AF92BF920F931F93CF93DF93CDB76A
:10171000DEB7A1970FB6F894DEBF0FBECDBF19A2FA
:10172000423008F44AE08E010F5D1F4F842E912C49
:10173000A12CB12CA50194010E94C213E62FB9017E
:10174000CA0101501109EA3014F4E05D01C0E95CFE
:10175000D801EC93232B242B252B61F7C8010E9481
:101760000B0AA1960FB6F894DEBF0FBECDBFDF9176
:10177000CF911F910F91BF90AF909F908F90089540
:101780000C940B0ACF92DF92EF92FF92CF93DF93EC
:1017900097FF21C06B017C01E0917904F0917A04FC
:1017A0000190F081E02D6DE289E794E00995EC016C
:1017B00066277727CB016C197D098E099F094AE0BE
:1017C0000E947F0B8C0F9D1FDF91CF91FF90EF90B8
:1017D000DF90CF9008954AE0DF91CF91FF90EF9096
:1017E000DF90CF900C947F0B0F931F93CF93DF93D9
:1017F000C82FD62F062F10E081110AC085E090E097
:101800000E945C086FEF70E0601B710B85E00BC0FD
:10181000823061F486E090E00E945C086FEF70E037
:10182000601B710B86E00E94F3030AC0813041F413
:1018300087E090E00E945C088D2F80950E94B00A9E
:1018400089E794E00E94010740E060E089E794E0C6
:101850000E947E06C11103C08AEA90E009C0C2302E
:1018600019F484EA90E004C0C13021F48FE990E0DB
:101870000E945E0B8CE990E00E945E0B9801A4E64A
:10188000B0E00E94E4132FEF30E040E050E00E940F
:101890009813CA01B9014AE00E947F0B8AE990E0DF
:1018A0000E945E0B84EF91E00E946008DF91CF916F
:1018B0001F910F910C946109CF93DF9300D01F9279
:1018C000CDB7DEB7789484B5826084BD84B581607D
:1018D00084BD85B5826085BD85B5816085BD8091FB
:1018E0006E00816080936E00109281008091810073
:1018F000826080938100809181008160809381006B
:10190000809180008160809380008091B10084602C
:101910008093B1008091B00081608093B00080918D
:101920007A00846080937A0080917A00826080934C
:101930007A0080917A008E7F80937A0080917A007D
:10194000806880937A001092C100A8950FB6F89431
:10195000A89580916000886180936000109260007B
:101960000FBE83E090E00E945E0880938502853080
:1019700040F082E08093850262E083E090E00E9484
:101980005C0884E090E00E945E08809386028531C6
:1019900040F080E18093860260E184E090E00E9464
:1019A0005C0862E088E00E94B70388E00E945E0362
:1019B000892B31F484E08093850284E18093860250
:1019C00060E088E00E94B703409185026091860242
:1019D00089E794E00E94890A0E948E098AE090E0DB
:1019E0000E945E08182F8F3F31F462E38AE090E096
:1019F0000E945C0812E380918100887F816080935F
:101A0000810061E089E00E94B703612F70E089E006
:101A10000E94F30361E085E00E94B70361E086E085
:101A20000E94B70361E083E00E94B70385E090E085
:101A30000E945E080FEF10E0B801681B710985E095
:101A40000E94F30386E090E00E945E08B801681BE4
:101A5000710986E00E94F30381E087BB82E08093F6
:101A6000B1008093B0009AE59093B300809370002A
:101A70000CE113E0F80180E090E02FEF2083DC011F
:101A8000A45EBC4F11961C92119713821282179676
:101A90001C92179718961C9239960996843B9105CB
:101AA00069F710921B0387E090E00E945E08809522
:101AB0000E94B00A80E090E0F8012081233059F4C0
:101AC00029E0289FF001299FF00D1124E45EFC4FCE
:101AD0001782108606C00196075F1F4F843191055B
:101AE00059F782E090E00E945E08823018F48093FB
:101AF0000A0308C081E080930A0361E082E090E07D
:101B00000E945C0880910A03882309F48CC084E158
:101B100090E00E945E088F3F49F08091850200911D
:101B20008602809F80011124F12C2FC089E794E068
:101B30000E94010740E060E089E794E00E947E0691
:101B40008DE291E00E94C00B41E060E089E794E003
:101B50000E947E068EE391E00E94C00B80E090E040
:101B60000E945E0880930B038D3040F083E08093E9
:101B70000B0363E080E090E00E945C0880910B031F
:101B80000E94B7080E94C20B11C0CF2CD12CC016E6
:101B9000D10654F4C60144960E945E08F601EB5C3F
:101BA000FD4F8083F394F1CF0E94610960E875E2F4
:101BB00080E090E00E941D0A12E380ED93E00E9415
:101BC0001B01892BF1F080ED93E00E94F900429710
:101BD000C1F489E794E00E94010740E060E089E7F2
:101BE00094E00E947E0685E491E00E94C00B63E0D1
:101BF00080E090E00E945C0884EF91E00E94600821
:101C000006C08AE090E00E9460081150B1F60E9480
:101C10008E0989E794E00E94010740E060E089E7CF
:101C200094E00E947E0664E6E62EF12CB12C83E15E
:101C300093E078E0A72EA80E53E1C52E53E0D52EF1
:101C40008701C8010E945E08F60181936F010F5F52
:101C50001F4FAE12F6CF8B2D0E94FE0AB394F8E010
:101C6000EF0EF11C28E0B212E7CF4091850260919F
:101C7000860289E794E00E94890A88E090E00E9449
:101C80005E08823030F060E088E090E00E945C08FE
:101C900002C081115DC062E080E00E94B70380E075
:101CA0000E945E03019709F453C061E085E00E9441
:101CB000B70361E085E00E94870310E5A89569E11C
:101CC00070E080E090E00E94520485E00E945E0394
:101CD000892B11F060E001C061E085E00E9487037C
:101CE00080E00E945E03019799F1115039F700E0FE
:101CF00010E06FEFC8010E945C080F5F1F4F083CA7
:101D00001105B9F768E270E089E00E94F30389E702
:101D100094E00E94010780E591E00E94C00B41E041
:101D200060E089E794E00E947E068DE591E00E94E4
:101D3000C00B61E085E00E94870384EF91E00E9480
:101D4000600885E00E945E03892B99F360E0F2CF82
:101D500080E090E00E945E0880930B038D3040F09D
:101D600083E080930B0363E080E090E00E945C08D6
:101D700080910B030E94B7080E941D0A60E08DE06D
:101D80000E94B70360E08BE00E94B70361E08CE043
:101D90000E94B70360E08AE00E94B70380EC8CBD2C
:101DA0000E94EF0883B7817F83BF83B7816083BFC1
:101DB00080917A008F7780937A0080E880BF8FE3EC
:101DC00080937E0083E080937F0080916400816037
:101DD0008093640078949CE088E10FB6F894A8950D
:101DE000809360000FBE909360009DE1C92ED12CBE
:101DF000E12CF12C12E023E0222E3CE0332E4BE0CC
:101E0000442EA8950E94BB01F8E09F2EA7E08A2EE1
:101E1000B6E07B2E05E0602E04E084E1582E909120
:101E2000090380910803981709F4C3C3A895E091AA
:101E30000903F0E0E857FD4F50818091090390E0DD
:101E400001968F77992780930903809112039091CF
:101E50001103811156C0911154C09091100391113A
:101E600020C290910F0391111CC290910E03911109
:101E700018C25C3721F481E080931103D0CF5E3F1C
:101E800021F481E080931203CACF5830D1F48091BD
:101E90008702811109C08091850290918602899FF5
:101EA000802D112480938702E0918702E150E09316
:101EB0008702F0E0EB5CFD4F80E280830E946109C5
:101EC000AECF652F89E794E059830E94B706E09171
:101ED000870281E08E0F80938702F0E0EB5CFD4F7C
:101EE00059815083309186022091850290E0329F83
:101EF000900111248217930709F091CF1092870265
:101F00008ECF992309F4CDC18DEF850F853008F070
:101F10006BC0823079F018F4813041F004C0833016
:101F200061F0843069F0509286020DC080E18093A8
:101F3000860209C00093850206C01093850203C083
:101F400081E080938502B0908602409185026B2DDE
:101F500089E794E00E94890A0E948E096B2D84E033
:101F600090E00E945C086091850283E090E00E940E
:101F70005C0889E794E00E94010740E060E089E79F
:101F800094E00E947E0683EE90E00E945E0B6091DA
:101F9000850270E080E090E04AE00E947F0B809133
:101FA0008502813051F484EF91E00E94600889E756
:101FB00094E00E94010740E001C041E060E089E751
:101FC00094E00E947E068CED90E00E945E0B609192
:101FD000860270E080E090E04AE00E947F0B84EF90
:101FE00091E00E94600830C0583009F4FFCF5930AA
:101FF00071F582E090E00E945E08B82E89E794E0D7
:102000000E94010740E060E089E794E00E947E06BC
:102010008FEE90E00E945E0B31E0B31206C08CEEB2
:1020200090E00E945E0B60E005C08AEE90E00E94A6
:102030005E0B61E084EF91E069830E946008698132
:1020400082E090E00E945C080E94610927C15A303A
:1020500029F5B12C8B2D90E03091850220918602DC
:10206000329F90011124821793074CF4FC01EB5C22
:10207000FD4F608144960E945C08B394EBCF89E7E2
:1020800094E00E94010740E060E089E794E00E944C
:102090007E068CE691E00E94C00BA1CFE5EFE50F34
:1020A000ED3008F055C08E2F90E0FC013197EC30F8
:1020B000F10520F4EF5BFF4F0C94771381E016C01D
:1020C00010930B0320C020920B031DC000930B0341
:1020D0001AC060920B0317C070920B0314C0809259
:1020E0000B0311C090920B030EC089E080930B0389
:1020F0000AC08AE0FBCF40920B0305C030920B036D
:1021000002C010920B0360910B0380E090E00E94EC
:102110005C0889E794E00E94010740E060E089E7FD
:1021200094E00E947E0688EF90E00E945E0B809112
:102130000B030E94B7080E94C20B84EF91E00E943B
:10214000600880910B030E94B7080E941D0A7CCF93
:10215000583121F481E080931003A0C0593121F45B
:1021600081E080930F039AC05A3151F588E090E0E6
:102170000E945E08B82E89E794E00E94010740E0C3
:1021800060E089E794E00E947E0687E091E00E948B
:102190005E0B41E0B41206C084E091E00E945E0B49
:1021A00060E005C082E091E00E945E0B61E084EF98
:1021B00091E069830E946008698188E090E042CFE5
:1021C0005D3269F489E794E00E94010740E060E035
:1021D00089E794E00E947E060E948E095FC080E835
:1021E000850F8E31A8F4852F90E0A0E0B0E09C012F
:1021F000AD012058310941095109AFEFB0E00E940B
:10220000B713A70196010E949813622F80E031C096
:1022100082E6850F8E31A8F4852F90E0A0E0B0E033
:102220009C01AD012E59310941095109AFEFB0E0D0
:102230000E94B713A70196010E949813622F82E0B3
:1022400018C084E4850F8E31B8F4852F90E0A0E0AB
:10225000B0E09C01AD012C5B310941095109AFEFA0
:10226000B0E00E94B713A70196010E949813622F55
:1022700081E00E94F40B12C085EE850F883030F4A7
:1022800080930D0381E080930E0308C06DED650F10
:10229000693020F489E794E00E94B7061092110398
:1022A000BECD90910F03992339F1652F89E090E01D
:1022B00059830E945C080E94EF0889E794E00E941D
:1022C000010740E060E089E794E00E947E068CE729
:1022D00091E00E94C00B5981652F70E080E090E092
:1022E00040E10E947F0B84EF91E00E9460080E9411
:1022F000610910920F0393CD882309F4E2C0852F62
:1023000090E09C01220F232F221F330B2130310537
:10231000D1F4652F6F776431A0F080EC860F8431A3
:1023200048F08CEE860F843140F06455643140F4FF
:1023300043E075C0682F41E072C0682F42E06FC073
:1023400060E040E06CC09C0176E0359527957A9579
:10235000E1F72130310541F45F7B5B5150930D0370
:1023600081E080930E03AAC09C0164E03595279517
:102370006A95E1F72130310509F056C0952F947028
:1023800053FF24C0992381F06CE189E794E00E9417
:102390005806809184049FEF980F90938404993D90
:1023A0000CF08CC0895D0FC068E189E794E00E9461
:1023B00058068091840491E0980F90938404983299
:1023C0000CF47CC087528093840478C060918602AC
:1023D00080918702992379F08F5F80938702209103
:1023E000850290E0629F900111248217930789F47F
:1023F000109287020EC0811107C080918502869FCE
:10240000802D1124809387028091870281508093D0
:102410008702809187020E946B13482F692F89E7FA
:1024200094E00E947E064AC043E0959587954A95C0
:10243000E1F70197D9F56091940450FF06C0862F0B
:10244000816080939404696004C06E7F60939404FB
:10245000686089E794E059830E947B065981609106
:10246000940451FF06C0862F8260809394046A60B2
:1024700004C06D7F60939404686089E794E0598399
:102480000E947B0659816091940452FF06C0862FFA
:102490008460809394046C6004C06B7F60939404A8
:1024A000686089E794E00E94580608C0233031052F
:1024B00029F0652F89E794E00E947B0610921203B1
:1024C000AECC80910E038823F1F180910C03E82FAC
:1024D000F0E0ED5EFC4F50838F5F80930C038830FB
:1024E00008F49DCC10920C0380910D030E94FE0A0B
:1024F00083E1A82E83E0B82E1B821A82F501619138
:102500005F0180910D032A813B8148E0849F200D6B
:10251000311D1124C9018C599F4F0E945C082A81EA
:102520003B812F5F3F4F3B832A832830310531F7B2
:10253000409185026091860289E794E00E94890AB1
:1025400010920E036CCC80911003882309F467CCA1
:10255000652F8AE090E059830E945C085981652FBD
:1025600070E089E00E94F30389E794E00E9401078C
:1025700040E060E089E794E00E947E0688E891E010
:102580000E94C00B41E060E089E794E00E947E0673
:102590005981652F70E080E090E04AE00E947F0B57
:1025A00084EF91E00E9460080E946109109210037C
:1025B00036CC83B7816083BF889583B78E7F83BF16
:1025C0000E94DA011ECCCF93DF93E0EDF3E013829B
:1025D000128288EE93E0A0E0B0E084839583A68326
:1025E000B78329E031E03183208325EC30E0358763
:1025F000248724EC30E03787268720EC30E0318BCD
:10260000208B21EC30E0338B228B22EC30E0358BB9
:10261000248B26EC30E0378B268B118E128E138E96
:10262000148EEDE6F4E01382128284839583A683F0
:10263000B78389E191E091838083C9E7D4E01B826D
:102640001A8289E291E0998388838EE08E838FEFEE
:102650008F8390E1988789871A861B861C861D8642
:102660001E861F8681E1898B82E08A8B87E08B8BB7
:1026700084E08C8B61E081E10E94B70361E082E03D
:102680000E94B70361E087E00E94B70361E084E045
:102690000E94B7031F8A80E4888F84E1898F84E5D4
:1026A0008A8F61E08E810E94B70361E08FE00E9413
:1026B000B70360E08FE00E94870361E088850E9495
:1026C000B70341E064E1CE010E94890A8FE08F8365
:1026D000DF91CF910895991B79E004C0991F961757
:1026E00008F0961B881F7A95C9F780950895EE0F1C
:1026F000FF1F0590F491E02D099481E090E0F8949B
:102700000C94F313F999FECF92BD81BDF89A9927E5
:1027100080B50895262FF999FECF1FBA92BD81BDCD
:1027200020BD0FB6F894FA9AF99A0FBE0196089553
:10273000052E97FB1EF400940E94AF1357FD07D09F
:102740000E94C21307FC03D04EF40C94AF135095B3
:102750004095309521953F4F4F4F5F4F089590958D
:102760008095709561957F4F8F4F9F4F08950E9480
:10277000E413A59F900DB49F900DA49F800D911D13
:1027800011240895A1E21A2EAA1BBB1BFD010DC046
:10279000AA1FBB1FEE1FFF1FA217B307E407F50711
:1027A00020F0A21BB30BE40BF50B661F771F881FED
:1027B000991F1A9469F760957095809590959B0183
:1027C000AC01BD01CF010895A29FB001B39FC0012C
:1027D000A39F700D811D1124911DB29F700D811D4D
:1027E0001124911D0895F894FFCFFF01000000000F
:1027F0000000005201CE001B01F9000D01990100FB
:10280000000000D402C002B802A4029502940200A3
:10281000000000B706CE00537061726B46756E20E3
:102820004F70656E4C434400426175643A2000422B
:102830006175642052657365740053797374656DB6
:1028400020726573657400506F77657220637963D9
:102850006C65206D650053706C6173682052656310
:102860006F72646564004E6577205457493A203092
:102870007800436F6E747261737420536574000046
:10288000FFFFFFFFFFFFFFFFFFFFFFFFFFFFFFFF58
:10289000FFFFFFFFFFFFFFFFFFFFFFFFFFFFFFFF48
:1028A000FFFFFFFFFFFFFFFFFFFFFFFFFFFFFFFF38
:1028B000FFFFFFFFFFFFFFFFFFFFFFFFFFFFFFFF28
:107E0000112484B714BE81FFF0D085E080938100F7
:107E100082E08093C00088E18093C10086E0809377
:107E2000C2008BE08093C4008EE0C9D0259A86E022
:107E30002DE53DEF91E0309385002093840096BBC3
:107E4000B09BFECF1D9AA8958150A9F7CC24DD24C4
:107E500088248394B5E0AB2EA1E19A2EF3E0BF2EE7
:107E6000A2D0813461F49FD0082FAFD0023811F036
:107E7000013811F484E001C083E08DD089C08234E0
:107E800011F484E103C0853419F485E0A6D080C0E4
:107E9000853579F488D0E82EFF2485D0082F10E0AE
:107EA000102F00270E291F29000F111F8ED06801E7
:107EB0006FC0863521F484E090D080E0DECF843638
:107EC00009F040C070D06FD0082F6DD080E0C81688
:107ED00080E7D80618F4F601B7BEE895C0E0D1E017
:107EE00062D089930C17E1F7F0E0CF16F0E7DF06D8
:107EF00018F0F601B7BEE89568D007B600FCFDCFD4
:107F0000A601A0E0B1E02C9130E011968C91119780
:107F100090E0982F8827822B932B1296FA010C0160
:107F200087BEE89511244E5F5F4FF1E0A038BF0790
:107F300051F7F601A7BEE89507B600FCFDCF97BE46
:107F4000E89526C08437B1F42ED02DD0F82E2BD052
:107F50003CD0F601EF2C8F010F5F1F4F84911BD097
:107F6000EA94F801C1F70894C11CD11CFA94CF0C13
:107F7000D11C0EC0853739F428D08EE10CD085E9AC
:107F80000AD08FE07ACF813511F488E018D01DD067
:107F900080E101D065CF982F8091C00085FFFCCF94
:107FA0009093C60008958091C00087FFFCCF809118
:107FB000C00084FD01C0A8958091C6000895E0E648
:107FC000F0E098E1908380830895EDDF803219F02E
:107FD00088E0F5DFFFCF84E1DECF1F93182FE3DFCA
:107FE0001150E9F7F2DF1F91089580E0E8DFEE27F6
:107FF000FF270994FFFFFFFFFFFFFFFFFFFF0404C0
:00000001FF
