:1000000014C1000043C1000041C100003FC1000015
:100010003DC100003BC1000039C1000037C10000F4
:1000200035C1000033C1000031C100002FC1000004
:100030002DC100002BC1000029C1000027C1000014
:1000400025C1000023C1000021C100001FC1000024
:100050001DC100001BC1000019C10000FDC400004B
:1000600015C100000FC3000057C300000FC10000FE
:100070000DC100000BC1000009C1000007C1000054
:1000800005C1000003C1000001C10000FFC0000065
:1000900073C1000048C10000F9C000009FC5000006
:1000A000F5C00000F3C00000F1C00000EFC0000088
:1000B000EDC00000EBC00000E9C00000E7C0000098
:1000C000E5C00000E3C00000E1C00000DFC00000A8
:1000D000DDC00000DBC00000D9C00000D7C00000B8
:1000E000D5C000004B044E043D0441044504850482
:1000F000520456045C04600464046A046E047204CE
:10010000850478047C04800400002100240027007A
:100110002A002D0030003300010100000401070116
:100120000A01010210202008081020401020408001
:1001300002010201080402010102040810204080AB
:100140008040201008040201800402018040201039
:100150000804020108040201010204081020408082
:100160000102040810204080050505050705080860
:100170000808020202020A0A080804040404010131
:100180000101010101010303030303030303040746
:1001900007070C0C0C0C0C0C0C0C020202020606DD
:1001A0000606060606060B0B0B0B0B0B0B0B0000D3
:1001B00020002300260029002C002F00320000011F
:1001C00000000301060109010000220025002800AB
:1001D0002B002E003100340002010000050108014F
:1001E0000B0100000A0B02090C0D0E0807030401A5
:1001F00000000000000000000000000000000000FF
:1002000000000000000000000000000000001211CB
:1002100010000000000000000000000000000000CE
:1002200000000000000000001D0F11241FBECFEFD2
:10023000D1E2DEBFCDBF00E00CBF14E0A0E0B2E031
:10024000EEE4F3E200E00BBF02C007900D92A8318C
:10025000B107D9F726E0A8E1B4E001C01D92AA34A5
:10026000B207E1F711E0C5E1D1E000E006C0219757
:100270000109802FFE010E94DB0FC431D10780E00D
:100280000807A9F70E94B10A0C94A511B9CECF9224
:10029000DF92EF92FF920F931F93CF93DF936C0146
:1002A0007A018B01C0E0D0E0CE15DF0589F0D801DE
:1002B0006D918D01D601ED91FC910190F081E02DC1
:1002C000C6011995892B11F47E0102C02196ECCF4D
:1002D000C701DF91CF911F910F91FF90EF90DF90B9
:1002E000CF9008950E949A1182EC94E090D021E082
:1002F000892B09F420E0822F08956115710579F0AA
:10030000FB0101900020E9F73197AF01461B570B25
:10031000DC01ED91FC910280F381E02D199480E0E5
:1003200090E00895EACF1F920F920FB60F9211241A
:100330000BB60F922F933F934F935F936F937F93DF
:100340008F939F93AF93BF93EF93FF9382EC94E0CF
:10035000C2D1FF91EF91BF91AF919F918F917F910A
:100360006F915F914F913F912F910F900BBE0F9026
:100370000FBE0F901F9018951F920F920FB60F92FD
:1003800011240BB60F922F933F934F935F936F936C
:100390007F938F939F93AF93BF93EF93FF9382ECE1
:1003A00094E057D1FF91EF91BF91AF919F918F91C1
:1003B0007F916F915F914F913F912F910F900BBE65
:1003C0000F900FBE0F901F901895FC01918D828D9C
:1003D000981761F0828DDF01A80FB11D5D968C9199
:1003E000928D9F5F9F73928F90E008958FEF9FEFA4
:1003F0000895FC01918D828D981731F0828DE80F60
:10040000F11D858D90E008958FEF9FEF0895FC0119
:10041000918D228D892F90E0805C9F4F821B9109E6
:100420008F73992708958FE595E0F1DF21E0892BFF
:1004300009F420E0822F089580E090E0892B19F0E4
:10044000F2DF811120C080E090E0892B19F04CDFB1
:1004500081111CC080E090E0892B41F080E090E0A9
:10046000892B21F00E940000811113C080E090E0F0
:10047000892BA1F080E090E0892B81F00E940000A0
:1004800081110AC008950E940000DDCF0E94000083
:10049000E1CF0E940000EACF0C94000008953FB71E
:1004A000F89480916F0490917004A0917104B091C0
:1004B000720426B5A89B05C02F3F19F00196A11D17
:1004C000B11D3FBFBA2FA92F982F8827820F911DEA
:1004D000A11DB11DBC01CD0142E0660F771F881F31
:1004E000991F4A95D1F7089585ED8093BC008091BE
:1004F000BC0084FDFCCF10929D04089540914904F6
:10050000262F30E0240F311D21323105DCF42091FB
:100510009D042430C9F4FC0180E090E0861758F473
:10052000309149042191DC01A95DBB4FA30FB11D9E
:100530002C930196F3CF80914904680F609349048E
:1005400080E0089581E0089582E00895089581E0B3
:1005500090E03091190420911804321710F480E0D3
:1005600090E0919581959109089580911904909159
:100570001804891730F48F5F8093190480E090E0AD
:1005800008958FEF9FEF08958091180490E02091D7
:100590001904821B91090895CF92DF92EF92FF9286
:1005A0000F931F93CF93DF937C01262F972F8A0100
:1005B00080919E04882391F0C62FD72F6E01C40E20
:1005C000D51ECC15DD0569F06991D701ED91FC913F
:1005D0000190F081E02DC7011995F3CF642F822F90
:1005E0008DDFC801DF91CF911F910F91FF90EF90A8
:1005F000DF90CF900895CF93DF931F92CDB7DEB7F2
:10060000698320919E042223D1F02091C1042032DD
:1006100040F021E030E0FC013383228380E090E071
:1006200014C080919F04E82FF0E0E056FB4F9981C1
:1006300090838F5F80939F048093C10404C061E026
:10064000CE0101965BDF81E090E00F90DF91CF91CA
:100650000895FC01A089B1898C91A689B78982FD92
:100660000FC09C91818D8F5F8F73228D821749F00F
:10067000218DDF01A20FB11D5D969C93818F08959E
:100680008C9108951F920F920FB60F9211240BB602
:100690000F922F933F934F935F936F937F938F931B
:1006A0009F93AF93BF93EF93FF938FE595E0D1DFD7
:1006B000FF91EF91BF91AF919F918F917F916F913A
:1006C0005F914F913F912F910F900BBE0F900FBEF6
:1006D0000F901F901895FC01848DDF01A80FB11DAC
:1006E000A35ABF4F2C91848D90E001968F73992768
:1006F000848FA689B7892C93A089B1898C91806455
:100700008C93938D848D981306C00288F389E02D15
:1007100080818F7D808308951F920F920FB60F9274
:1007200011240BB60F922F933F934F935F936F93C8
:100730007F938F939F93AF93BF93EF93FF938FE537
:1007400095E0C9DFFF91EF91BF91AF919F918F919C
:100750007F916F915F914F913F912F910F900BBEC1
:100760000F900FBE0F901F901895EF92FF920F936E
:100770001F93CF93DF93EC0181E0888F9B8D8C8D4D
:10078000981305C0E889F989808185FD23C0F62E7C
:100790000B8D10E00F5F1F4F0F731127E02E8C8D14
:1007A000E8120BC00FB607FCFACFE889F9898081FF
:1007B00085FFF5CFCE018FDFF2CF8B8DFE01E80FE5
:1007C000F11DE35AFF4FF0820B8FEA89FB8980818C
:1007D000806207C0EE89FF896083E889F98980819A
:1007E0008064808381E090E0DF91CF911F910F9131
:1007F000FF90EF900895CF93DF93EC01888D8823CD
:10080000C1F0EA89FB89808185FD05C0A889B98985
:100810008C9186FD0EC00FB607FCF5CF808185FF59
:10082000F2CFA889B9898C9185FFEDCFCE0153DF36
:10083000E8CFDF91CF910895362F90E0FC01EE5183
:10084000FE4F4491FC01EE5DFE4F2491FC01E859FE
:10085000FE4F9491992309F46BC0442309F455C0C9
:1008600050E0FA013197E231F10508F04EC08827D7
:10087000EE58FF4F8F4F0C94DB0F809180008F77E5
:1008800007C0809180008F7D03C080918000877FAA
:10089000809380003AC084B58F7702C084B58F7D85
:1008A00084BD33C08091B0008F7703C08091B000C9
:1008B0008F7D8093B00029C0809190008F7707C012
:1008C000809190008F7D03C080919000877F8093FE
:1008D00090001BC08091A0008F7707C08091A0007E
:1008E0008F7D03C08091A000877F8093A0000DC002
:1008F000809120018F7707C0809120018F7D03C0F8
:1009000080912001877F80932001E92FF0E0EE0F96
:10091000FF1FE853FE4FA591B4918FB7F894EC9167
:10092000311103C020952E2301C02E2B2C938FBF95
:100930000895CF93DF9390E0FC01EE5DFE4F24918C
:10094000FC01E859FE4F8491882361F190E0880F03
:10095000991FFC01E85FFE4FC591D491FC01E8535B
:10096000FE4FA591B491611109C09FB7F894888199
:10097000209582238883EC912E230BC0623061F492
:100980009FB7F8943881822F809583238883EC91D8
:100990002E2B2C939FBF06C08FB7F894E8812E2B87
:1009A00028838FBFDF91CF910895863308F0865357
:1009B00090917B00282F2870977F922B90937B003B
:1009C0008770806480937C0080917A00806480933B
:1009D0007A0080917A0086FDFCCF8091780020918A
:1009E000790090E0922B08958F929F92AF92BF92E0
:1009F000CF92DF92EF92FF926B017C0150DD4B01B1
:100A00005C01C114D104E104F104E9F048DDDC012A
:100A1000CB0188199909AA09BB09883E9340A10511
:100A2000B10578F321E0C21AD108E108F10888EE97
:100A3000880E83E0981EA11CB11CC114D104E104EE
:100A4000F10421F7DECFFF90EF90DF90CF90BF90C1
:100A5000AF909F908F9008951F920F920FB60F92B4
:100A600011242F933F938F939F93AF93BF938091C4
:100A7000730490917404A0917504B0917604309140
:100A80006E0423E0230F2D3720F40196A11DB11D24
:100A900005C026E8230F0296A11DB11D20936E0408
:100AA0008093730490937404A0937504B0937604B8
:100AB00080916F0490917004A0917104B0917204C0
:100AC0000196A11DB11D80936F0490937004A093B3
:100AD0007104B0937204BF91AF919F918F913F9138
:100AE0002F910F900FBE0F901F9018950F931F938B
:100AF000CF93DF93EC01062F142F81E090E09983D0
:100B0000888386E391E09F838E8380EE95E7A9E05A
:100B1000B0E088879987AA87BB8780E29EE4A0E03F
:100B2000B0E08C879D87AE87BF87663420F08FEF5B
:100B30009FEF99838883163420F08FEF9FEF99837E
:100B4000888361E0802FF5DE60E0812FF2DE60E0D7
:100B5000802F72DE602F70E0FB01EE5DFE4FE491AE
:100B6000E88FFB01E859FE4FE491F0E0EE0FFF1F24
:100B7000E255FE4F859194919A8F898F412F50E0D5
:100B8000FA01EE5DFE4FE491EB8FFA01E859FE4F5A
:100B9000E491F0E0EE0FFF1FE255FE4F8591949136
:100BA0009D8F8C8F8FEF9FEFAFEFBFE08A839B838A
:100BB000AC83BD832FB7F894809173049091740433
:100BC000A0917504B09176042FBF888B998BAA8B66
:100BD000BB8BDF91CF911F910F9108951F920F92C0
:100BE0000FB60F9211240BB60F922F933F934F9392
:100BF0005F936F937F938F939F93AF93BF93EF9385
:100C0000FF938091B900887F803609F49CC068F515
:100C1000883209F45BC090F4803109F454C038F490
:100C2000882309F4F6C0883009F44DC0F5C0883136
:100C300009F44CC0803209F45DC0EEC0803409F480
:100C400068C048F4803309F455C0883309F0E4C023
:100C500080939B04D8C0803509F44FC0883509F4CF
:100C60005DC0883409F0D8C0D6C0883909F4C7C03F
:100C7000A8F4883709F467C038F4883609F463C0EB
:100C8000803709F460C0C8C0883809F4B8C080391A
:100C900009F45FC0803809F0BFC05BC0803B09F435
:100CA00086C038F4803A09F466C0883A09F47FC0F7
:100CB000B3C0803C09F4A7C0883C09F4A4C0883BB9
:100CC00009F48AC0A9C08091780410C090919A0458
:100CD00080919904981770F5E0919A0481E08E0F45
:100CE00080939A04F0E0E758FB4F80818093BB002B
:100CF00085EC86C080939B048EC0E0919A0481E0CD
:100D00008E0F80939A048091BB00F0E0E758FB4F70
:100D1000808390919A04809199046EC0E0919A0426
:100D200081E08E0F80939A048091BB00F0E0E75839
:100D3000FB4F808380919C0481116DC081E0809382
:100D4000770484EA61C083E080939D0410926D046F
:100D5000CFCF80916D04803208F051C0E0916D04D6
:100D600081E08E0F80936D048091BB00F0E0E35B27
:100D7000FB4F8083BDCF85EC8093BC0010929D0417
:100D800080916D04803230F4E0916D04F0E0E35B1B
:100D9000FB4F108260916D0470E0E0914B04F09184
:100DA0004C048DE494E0199510926D0435C084E0F4
:100DB00080939D0410924A0410924904E0914704E4
:100DC000F0914804199580914904811105C081E092
:100DD0008093490410922704E0914A0481E08E0F29
:100DE00080934A04F0E0E95DFB4F80818093BB0073
:100DF00090914A0480914904981708F479CF85E8C6
:100E00008093BC0009C085EC8093BC0010929D04C7
:100E100003C010929B0468DBFF91EF91BF91AF91EB
:100E20009F918F917F916F915F914F913F912F9102
:100E30000F900BBE0F900FBE0F901F901895ECEB0C
:100E4000F0E080818A7B808360E084E1F5DC60E013
:100E500085E1F2CCCF93DF93BC018FE595E04DDACD
:100E6000EC0168E973E08FE595E047DA8C0F9D1F90
:100E7000DF91CF9108958F929F92AF92BF920F937F
:100E80001F93CF93DF93CDB7DEB7A1970FB6F8943A
:100E9000DEBF0FBECDBF19A2423008F44AE08E017A
:100EA0000F5D1F4F842E912CA12CB12CA501940114
:100EB0000E94B90FE62FB901CA0101501109EA30A9
:100EC00014F4E05D01C0E95CD801EC93232B242BE2
:100ED000252B61F7B8018FE595E00FDAA1960FB6E3
:100EE000F894DEBF0FBECDBFDF91CF911F910F9160
:100EF000BF90AF909F908F9008954F925F926F92A6
:100F00007F928F929F92AF92BF92CF92DF92EF9299
:100F1000FF926B017C019B01AC010E94961188231A
:100F200019F06CE074E01AC046015701E894B7F874
:100F30002FEF3FEF4FE75FE7C501B4010E94961125
:100F4000811111C02FEF3FEF4FE75FE7C501B401FB
:100F50000E94481018163CF460E174E08FE595E0BB
:100F6000CCD97C0183C02FEF3FEF4FE75FE4C7018F
:100F7000B6010E942F1118161CF464E174E0EECF44
:100F80002FEF3FEF4FE75FECC701B6010E9448101B
:100F900087FDF3CF20E030E0A901C701B6010E9430
:100FA000481087FF11C0E0915F05F0916005019046
:100FB000F081E02D6DE28FE595E019955C01F7FA7F
:100FC000F094F7F8F09402C0A12CB12C2AE037ED90
:100FD00043EA5BE3C701B601F7D72B013C010E944E
:100FE00051106B017C010E947D109B01AC01C3017B
:100FF000B201E9D72B013C014AE0C701B6013BDF52
:101000007C01EA0CFB1C6DE673E08FE595E075D979
:10101000E80EF91E20E030E040E251E4C301B201E5
:101020000E9433112B013C010E9451104B01A12C55
:10103000B12C4AE0C501B4011EDFE80EF91EC5015E
:10104000B4010E947D109B01AC01C301B201BBD76A
:1010500020E030E040E251E40E9433110E94511040
:1010600080E090E04AE007DFE80EF91E68E973E0EF
:101070008FE595E042D98E0D9F1DFF90EF90DF9098
:10108000CF90BF90AF909F908F907F906F905F9028
:101090004F900895CF92DF92EF92FF92CF93DF931C
:1010A0006C01990FEE08FF08F7FE19C0E0915F058B
:1010B000F09160050190F081E02D6DE28FE595E003
:1010C0001995EC0166277727CB016C197D098E09EC
:1010D0009F094AE0D0DE7C01EC0EFD1E05C04AE00F
:1010E000C701B601C8DE7C0168E973E08FE595E0D1
:1010F00004D98E0D9F1DDF91CF91FF90EF90DF906F
:10110000CF9008952091C1049091C004213208F03D
:101110004AC080919D048111FCCF32E030939D0440
:1011200031E030939C043FEF30939B0410929A047B
:1011300020939904A0EAB4E049E754E0FA013E2F75
:10114000341B321718F43D913193F9CF1092780483
:1011500020917804990F922B9093780490917704C2
:10116000913061F410927704909178049093BB00D1
:101170009091BC0093FDF8CF95EC01C095EE909353
:10118000BC0090919D049230E1F390919B049F3FAD
:1011900079F080919B04803241F080919B048033F0
:1011A00031F084E005C081E003C082E001C083E04B
:1011B00010929F041092C10410929E040895FC01A5
:1011C000A089B18982E08C93A485B5851C92A685FF
:1011D000B7858FEC8C93108EA489B58986E08C93AB
:1011E000A289B3898C9180618C93A289B3898C91F7
:1011F00088608C93A289B3898C9180688C930288D3
:10120000F389E02D80818F7D80830895682F82ECA3
:1012100094E0ABCA549A5C9A64E670E080E090E097
:10122000E3CBCF93DF93C4E4D6E061E0888104DBB5
:101230006AEF70E080E090E0D7DB60E08881FCDA64
:101240006AEF70E080E090E0DF91CF91CDCB60E07D
:1012500084E2F2DA60E085E2EFDA60E086E2ECDA7E
:1012600060E087E2E9DA60E084E263DB60E085E287
:1012700060DB60E086E25DDB60E087E25ADB61E034
:1012800087E257DB60E087E2D7CACF92DF92EF9226
:10129000FF92CF93DF93FC01148A158A168A178A6E
:1012A0008081918197FD72C04EE123E230E0F89495
:1012B000A18DB28D12969C911297808D8095892375
:1012C00012968C93A48DB58D11969C911197838D58
:1012D0008095892311968C93A48DB58D12969C913F
:1012E0001297838D8095892312968C93A48DB58D4A
:1012F00011969C911197838D892B11968C93A48DB7
:10130000B58D12969C911297838D809589231296A4
:101310008C93C9010197F1F7A48DB58D11969C911D
:101320001197838D8095892311968C93A48DB58D0B
:1013300012969C911297838D8095892312968C9397
:10134000A18DB28D12969C911297808D892B129649
:101350008C937894C48DD58D638D58815623848960
:101360009589A689B789C084D184E284F384511118
:1013700011C08C159D05AE05BF0560F40196A11D39
:10138000B11D848B958BA68BB78BE7CF6FEF7FEF6B
:10139000CB01E0C0C816D906EA06FB0608F45CC01B
:1013A000F894A48DB58D12969C911297838D892BFC
:1013B00012968C93A48DB58D11969C911197838D67
:1013C000892B11968C93A48DB58D12969C911297B2
:1013D000838D892B12968C93A48DB58D11969C913B
:1013E0001197838D8095892311968C93A48DB58D4B
:1013F00012969C911297838D8095892312968C93D7
:10140000A18DB28D12969C911297808D8095892323
:1014100012968C937894C48DD58D638D5881562304
:1014200084899589A689B789C084D184E284F384AC
:10143000552369F08C159D05AE05BF0540F4019656
:10144000A11DB11D848B958BA68BB78BE7CF8C1517
:101450009D05AE05BF0528F06EEF7FEF8FEF9FEF84
:1014600079C0415009F023CFEF012FB7F894809154
:10147000730490917404A0917504B09176042FBF09
:101480004089518962897389841B950BA60BB70B20
:101490004485558566857785481759076A077B0710
:1014A00028F5C488D588E688F788628173818481AD
:1014B0009581C616D706E806F90629F0C61AD70A96
:1014C000E80AF90A03C0C12CD12C760116D62DECFE
:1014D0003CEC4CEC5DE3C7D6DFD5CB01770FAA0B14
:1014E000BB0BC816D906EA06FB06E0F08C899D897D
:1014F000AE89BF89CA80DB80EC80FD808C159D059C
:10150000AE05BF0520F48A839B83AC83BD83CA806C
:10151000DB80EC80FD80BC01CD016C197D098E095A
:101520009F0918C08FEF9FEFAFEFBFE08A839B83C7
:10153000AC83BD832FB7F8948091730490917404A9
:10154000A0917504B09176042FBF888B998BAA8BDC
:10155000BB8BCCCFDF91CF91FF90EF90DF90CF90FE
:101560000895CF93DF93CDB7DEB7E2970FB6F89427
:10157000DEBF0FBECDBF789484B5826084BD84B5D4
:10158000816084BD85B5826085BD85B5816085BD7E
:1015900080916E00816080936E0010928100809136
:1015A00081008260809381008091810081608093BE
:1015B0008100809180008160809380008091B100E3
:1015C00084608093B1008091B00081608093B0000E
:1015D0008091910082608093910080919100816060
:1015E0008093910080919000816080939000809121
:1015F000A10082608093A1008091A100816080930E
:10160000A1008091A00081608093A00080912101C1
:10161000826080932101809121018160809321016A
:101620008091200181608093200180917A00846004
:1016300080937A0080917A00826080937A00809112
:101640007A00816080937A0080917A00806880932C
:101650007A001092C10061E08DE06BD961E083E017
:1016600068D960E083E0E8D860E082E062D960E0B9
:1016700082E15FD960E083E15CD9CCDD8FE595E064
:101680009EDD86E292E0E6DB98E4292E25E4322E08
:101690007E0127E0E20EF11C3DE9C32E31E0D32E9E
:1016A00086E296E0F2DD4B015C01609323047093C7
:1016B0002404809325049093260488E096E0E5DDD9
:1016C00060931F047093200480932104909322045C
:1016D000E9E88E16E3E19E06A104B1040CF401C111
:1016E000A0DD80901E04882009F45CC083E492E0B1
:1016F000B1DB82EC94E07FD8E091D404F091D50482
:1017000080818F7E8083E091D404F091D504808124
:10171000877F8083E091D404F091D50480818F7716
:101720008083E091D404F091D50480818F7D808303
:101730008091DC048093DB0482DB9FB7F894809176
:101740001B04882319F0815080931B0480911B0493
:10175000811105C08CB58F7B8CBD10921A049FBF80
:1017600060E085E369D860E080E366D860E081E30B
:1017700063D860E08EE160D860E08EE1DAD8109244
:101780001E0460E08BE258D860E08AE255D860E041
:1017900089E252D860E088E24FD810921D0410927E
:1017A0001C0499C060E080E347D860E081E344D83E
:1017B00061E08CE2BED861E08CE23ED860E085E476
:1017C000B8D868EC70E080E090E00ED985E4EDD800
:1017D0008C0160E08CE230D860E08CE2AAD8B801DD
:1017E000110F880B990B8BD42B013C012DE33AE4AC
:1017F0004AEF53E44DD487FF0FC011E023EC35EBE3
:101800004BEE53E4C301B2012AD518160CF010E0D8
:1018100081E0912E982602C09924939461E083E0A0
:1018200088D860E08CE385D861E083E005D868EC77
:1018300070E080E090E0D8D88CE3B7D88C0168E500
:1018400072E08FE595E00E949201C80123DC60E020
:1018500083E00E941C0460E083E06BD8B801110FA4
:10186000880B990B4CD42B013C012DE33AE44AEF51
:1018700053E40ED487FF9BC223EC35EB4BEE53E4CD
:10188000C301B201ECD418160CF091C202C0882436
:10189000839480911C0490911D04019690931D04E3
:1018A00080931C0460E081E30E941C04D0DC911052
:1018B00003C08DE892E0CEDA811003C081EC92E0A3
:1018C000C9DA10921E0461E08AE20E941C0460E002
:1018D0008BE20E941C0464EF71E080E090E084D809
:1018E00063C269387341810591050CF45DC2809132
:1018F0001E04882309F458C294DC60E08EE10E9443
:101900001C0460E08EE115D810921D0410921C0496
:1019100060E089E20E941C0460E088E20E941C04EE
:1019200083EE92E097DA61E083E003D860E083E041
:101930000E941C048CE339D88C0120E030E040E8A0
:101940005AE360914606709147068091480690914F
:10195000490689D44B015C01B801012E000C880BAB
:10196000990BCDD39B01AC01C501B4017CD44B01D3
:101970005C0164E073E08FE595E00E9492016DECFC
:101980007CEC8CEC9DE3B9DA68E173E08FE595E0DF
:101990000E949201C8017EDB62E273E08FE595E070
:1019A0000E949201C501B401A8DA2AE23CE54FEE9B
:1019B0005FE3C501B4016CD318160CF431C22AE000
:1019C00037ED43EC5FE3C501B40149D487FD28C27C
:1019D00087EC93E03FDA82EC94E0F1DB8CE293E079
:1019E00039DA8CE790E012DC8BEB90E00FDC60EDF5
:1019F00077E080E090E00E94F4048CE790E006DC61
:101A000088E190E003DC8AE090E000DC64EF71E0C4
:101A100080E090E00E94F4048CE790E0F7DB8DE238
:101A200090E0F4DB61E473E082EC94E00E949201C8
:101A300064EF71E080E090E00E94F404EBDB109230
:101A400019041092180410929F041092C10410926D
:101A50009D0411E010939C041092770461E084E1EE
:101A60000E941C0461E085E10E941C048091B90081
:101A70008E7F8093B9008091B9008D7F8093B900EB
:101A80002092B8003092BC008AE993E0E3D962E585
:101A900073E08FE595E00E94920140E162E770E01B
:101AA00080E090E0E8D910939E0422E72093C004E0
:101AB00010929F041092C10425DB811114C085E6A9
:101AC00093E0C8D910939E0482E78093C0041092DB
:101AD0009F041092C1046FE673E08CEF95E00E94C2
:101AE000920110DB33C0843099F46DE773E08FE529
:101AF00095E00E94920140E162E770E080E090E0B2
:101B0000BAD968E973E08FE595E00E947D010FC0C6
:101B10006BE973E08FE595E00E94920140E162E796
:101B200070E080E090E0A7D989EA93E093D98091B2
:101B30001C0490911D04019690931D0480931C0435
:101B40006BEF73E08FE595E00E94920178D95C9885
:101B500064E670E080E090E00E94F40480911C0450
:101B600090911D04892B09F060C061E085E30E941B
:101B7000990461E085E30E941C041FB7F8948091EA
:101B80001B04811126C0F6018491E7E5F1E09491F0
:101B9000E82FF0E0EE0FFF1FE85FFE4FA591B49134
:101BA0008C91982321F461E085E30E941C0461E09C
:101BB00085E30E9499048CB580618CBD8CB58064EE
:101BC0008CBD61E084E30E94990461E083E30E949C
:101BD000990480911B048F5F80931B041FBF8CB5F9
:101BE0008C7F82608CBD8DB58E7F8DBD66EB73E082
:101BF000CE010196A3D360E085E30E941C0480E03F
:101C0000E1E0F0E0EC0FFD1FE80FF11D908199235A
:101C100041F09EBD00000DB407FEFDCF9EB58F5F65
:101C2000EFCF61E085E30E941C0480911C04909139
:101C30001D04892B09F0ACC0E0E0F2E0DE01119652
:101C400086E001900D928A95E1F78CE790E0DEDA6C
:101C50008EE990E0DBDA68EB7BE080E090E00E94C8
:101C6000F4048CE790E0D2DA8CEB90E0CFDA68EB0A
:101C70007BE080E090E00E94F4048CE790E0C6DA1C
:101C800080E890E0C3DA68EB7BE080E090E00E94BF
:101C9000F4048E010F5F1F4F48016AEB73E08FE57C
:101CA00095E00E949201F401419051904F01C201D0
:101CB000F1D98CE790E0AADAC20180589F4FA6DAEA
:101CC00068EB7BE080E090E00E94F4048E149F04B7
:101CD00021F78CE790E09ADA80E890E097DA68EBF9
:101CE0007BE080E090E00E94F404CE0101964C017C
:101CF0006AEB73E08FE595E00E949201F401419058
:101D000051904F01C201C6D98CE790E07FDAC20141
:101D100082569F4F7BDA68EB7BE080E090E00E9488
:101D2000F4048E149F0421F78CE790E06FDA8EE9BB
:101D300090E06CDA68EB7BE080E090E00E94F404D5
:101D40006AEB73E08FE595E00E949201F8018190C3
:101D500091908F01C4019ED98CE790E057DAC401BD
:101D600084549F4F53DA68EB7BE080E090E00E9460
:101D7000F4040E151F0521F78CE790E047DA8CEB91
:101D800090E044DA68EB7BE080E090E00E94F404AD
:101D900080911C0490911D0461E0892B11F488E26C
:101DA00001C089E20E941C040E941C0279CC992087
:101DB00009F46DCD61E081E30E941C0448DA61E022
:101DC00080E30E941C0460E081E20E941C0460E049
:101DD00083E20E941C0460E081E20E94990460E0BA
:101DE00083E20E94990461E081E20E94990460E02C
:101DF00081E20E941C0461E08EE10E94990461E08E
:101E00008EE10E941C048DE692E024D881E080934C
:101E10001E0461E08BE20E941C0460E08AE259CD5E
:101E200085ED93E017D880911C0490911D040196D4
:101E300090931D0480931C04CECDE2ECF4E0138259
:101E4000128288EE93E0A0E0B0E084839583A683BD
:101E5000B7832AE032E0318320834DEC50E0558790
:101E600044874CEC50E05787468748EC50E0518B54
:101E7000408B49EC50E0538B428B4AEC50E0558B41
:101E8000448B4EEC50E0578B468B118E128E138E86
:101E9000148EEFE5F5E01382128284839583A68386
:101EA000B7833183208325EC30E03587248724EC09
:101EB00030E03787268720EC30E0318B208B21EC17
:101EC00030E0338B228B22EC30E0358B248B26ECF8
:101ED00030E0378B268B118E128E138E148EECEF22
:101EE000F5E01382128284839583A683B7838AE107
:101EF00092E091838083E4E4F6E08DE090E09183CA
:101F0000808383E393E3A3E5B0E482839383A48394
:101F1000B58361E08DE00E94990461E08BE20E944C
:101F2000990461E08AE20E94990461E089E20E94DA
:101F3000990461E088E20E94990461E080E30E94D4
:101F4000990460E080E30E941C0461E081E30E9448
:101F5000990460E081E30E941C044DE26FE286E296
:101F600096E00E9476054EE26FE188E096E00C94E0
:101F70007605A1E21A2EAA1BBB1BFD010DC0AA1FEC
:101F8000BB1FEE1FFF1FA217B307E407F50720F0E2
:101F9000A21BB30BE40BF50B661F771F881F991F5D
:101FA0001A9469F760957095809590959B01AC01A6
:101FB000BD01CF010895EE0FFF1F881F8BBF079053
:101FC000F691E02D19945058BB27AA270ED00DC1C9
:101FD000FED030F003D120F031F49F3F11F41EF415
:101FE000F3C00EF4E095E7FBE9C0E92F0FD180F3D1
:101FF000BA17620773078407950718F071F49EF506
:1020000027C10EF4E0950B2EBA2FA02D0B01B901BC
:1020100090010C01CA01A0011124FF27591B99F05E
:10202000593F50F4503E68F11A16F040A22F232F6A
:10203000342F4427585FF3CF469537952795A795BA
:10204000F0405395C9F77EF41F16BA0B620B730B61
:10205000840BBAF09150A1F0FF0FBB1F661F771FD2
:10206000881FC2F70EC0BA0F621F731F841F48F487
:10207000879577956795B795F7959E3F08F0B3CF0D
:102080009395880F08F09927EE0F979587950895F7
:1020900071D008F481E0089504D06894B111D9C0DA
:1020A0000895BCD088F09F5790F0B92F9927B75169
:1020B000A0F0D1F0660F771F881F991F1AF0BA950C
:1020C000C9F712C0B13081F0C3D0B1E00895C0C0EB
:1020D000672F782F8827B85F39F0B93FCCF3869502
:1020E00077956795B395D9F73EF49095809570955F
:1020F00061957F4F8F4F9F4F0895E89409C097FBDC
:102100003EF490958095709561957F4F8F4F9F4FCE
:102110009923A9F0F92F96E9BB279395F695879512
:1021200077956795B795F111F8CFFAF4BB0F11F4D5
:1021300060FF1BC06F5F7F4F8F4F9F4F16C088237C
:1021400011F096E911C0772321F09EE8872F762FB2
:1021500005C0662371F096E8862F70E060E02AF0F3
:102160009A95660F771F881FDAF7880F96958795DF
:1021700097F90895990F0008550FAA0BE0E8FEEFB4
:1021800016161706E807F907C0F012161306E4073B
:10219000F50798F0621B730B840B950B39F40A2634
:1021A00061F0232B242B252B21F408950A2609F412
:1021B000A140A6958FEF811D811D089597F99F6716
:1021C00080E870E060E008959FEF80EC08950024BF
:1021D0000A941616170618060906089500240A948C
:1021E00012161306140605060895092E0394000C12
:1021F00011F4882352F0BB0F40F4BF2B11F460FFA1
:1022000004C06F5F7F4F8F4F9F4F089557FD9058C9
:10221000440F551F59F05F3F71F04795880F97FBAA
:10222000991F61F09F3F79F0879508951216130664
:102230001406551FF2CF4695F1DF08C01616170693
:102240001806991FF1CF86957105610508940895C8
:10225000E894BB2766277727CB0197F908958ADF93
:1022600008F48FEF08950BD0C0CFB1DF28F0B6DFB0
:1022700018F0952309F0A2CFA7CF1124EACFC6DF2B
:10228000A0F3959FD1F3950F50E0551F629FF00189
:10229000729FBB27F00DB11D639FAA27F00DB11DE2
:1022A000AA1F649F6627B00DA11D661F829F22276B
:1022B000B00DA11D621F739FB00DA11D621F839FF2
:1022C000A00D611D221F749F3327A00D611D231FC8
:1022D000849F600D211D822F762F6A2F11249F5716
:1022E00050408AF0E1F088234AF0EE0FFF1FBB1F39
:1022F000661F771F881F91505040A9F79E3F5105D8
:1023000070F05CCFA6CF5F3FECF3983EDCF3869590
:1023100077956795B795F795E7959F5FC1F7FE2B82
:10232000880F911D9695879597F9089523DF880B5F
:10233000990B089581E090E0F89407C0FB01DC015F
:0E23400001900D920020E1F70895F894FFCF70
:10234E0000000F001D0000000000B503470107024A
:10235E00E501F901FB0300000000FB02CC02C40200
:10236E00B502A702A60253657269616C20456E61C3
:10237E00626C6564204C43442054657374626564DA
:10238E000A0D00706F776572696E6720646F776EE5
:10239E0020746172676574004A756D706572207481
:1023AE006573742072656164696E673A0050726578
:1023BE002D7465737420504153532C20706F7765C4
:1023CE0072696E672075702E2E2E0A0D004A756D7D
:1023DE00706572206F6E20506F77657220496E7037
:1023EE007574205261696C2028464A2056322C2082
:1023FE00616B6120626F6172642056494E290A0D2D
:10240E00004A756D706572206F6E20332E33562024
:10241E005261696C2028626F6172642056434329B1
:10242E000A0D0074657374696E6720332E3356205F
:10243E006F7574707574206F6E20626F6172642098
:10244E0056434300616C6C6F77616E6365467261D3
:10245E006374696F6E3A200052656164696E673A03
:10246E002000566F6C746167653A2000477265658F
:10247E006E206272696768746E6573733A203239C2
:10248E000053657269616C202020202020202020BE
:10249E00200050696E67696E6720616464726573AF
:1024AE0073203078002E2E2E666F756E642E0049C6
:1024BE0032432020202020202020202000556E6B2B
:1024CE006E6F77206572726F722061742061646422
:1024DE0072657373203078000D0A002E2E2E616403
:1024EE00647265737320307800204E4F5420464F2F
:1024FE00554E44210A005350490062726967687450
:10250E006E6573733A20007465737420737563631C
:10251E00657373210074657374206661696C7572DE
:10252E0065202873686F756C642072656164206E17
:10253E0065617220312E37205629004932432070B2
:10254E00696E67204641494C555245006E616E00DA
:08255E00696E66006F766600ED
:020000023000CC
:10E000000D9489F10D94B2F10D94B2F10D94B2F129
:10E010000D94B2F10D94B2F10D94B2F10D94B2F1F0
:10E020000D94B2F10D94B2F10D94B2F10D94B2F1E0
:10E030000D94B2F10D94B2F10D94B2F10D94B2F1D0
:10E040000D94B2F10D94B2F10D94B2F10D94B2F1C0
:10E050000D94B2F10D94B2F10D94B2F10D94B2F1B0
:10E060000D94B2F10D94B2F10D94B2F10D94B2F1A0
:10E070000D94B2F10D94B2F10D94B2F10D94B2F190
:10E080000D94B2F10D94B2F10D94B2F10D94B2F180
:10E090000D94B2F10D94B2F10D94B2F10D94B2F170
:10E0A0000D94B2F10D94B2F10D94B2F10D94B2F160
:10E0B0000D94B2F10D94B2F10D94B2F10D94B2F150
:10E0C0000D94B2F10D94B2F10D94B2F10D94B2F140
:10E0D0000D94B2F10D94B2F10D94B2F10D94B2F130
:10E0E0000D94B2F141546D656761323536300041AF
:10E0F000726475696E6F206578706C6F72657220DE
:10E1000073746B3530305632206279204D4C530099
:10E11000426F6F746C6F616465723E004875683F52
:10E1200000436F6D70696C6564206F6E203D200048
:10E130004350552054797065202020203D20005FF9
:10E140005F4156525F415243485F5F3D2000415658
:10E1500052204C696243205665723D20004743437C
:10E160002056657273696F6E203D20004350552024
:10E1700049442020202020203D20004C6F7720663D
:10E18000757365202020203D20004869676820665F
:10E190007573652020203D200045787420667573D6
:10E1A00065202020203D20004C6F636B2066757336
:10E1B000652020203D20004D617220203720323024
:10E1C000313300312E362E3800342E332E350056A2
:10E1D00023202020414444522020206F7020636F70
:10E1E00064652020202020696E73747275637469E1
:10E1F0006F6E2061646472202020496E74657272B3
:10E20000757074006E6F20766563746F7200726A49
:10E210006D702020006A6D70200057686174207056
:10E220006F72743A00506F7274206E6F7420737541
:10E2300070706F72746564004D7573742062652030
:10E2400061206C6574746572002000577269747483
:10E25000696E672045450052656164696E672045B7
:10E26000450045452065727220636E743D00504F35
:10E27000525400303D5A65726F2061646472003FF1
:10E280003D43505520737461747300403D454550C3
:10E29000524F4D207465737400423D426C696E6B41
:10E2A000204C454400453D44756D70204545505215
:10E2B0004F4D00463D44756D7020464C415348001B
:10E2C000483D48656C70004C3D4C69737420492F83
:10E2D0004F20506F72747300513D51756974005234
:10E2E0003D44756D702052414D00563D73686F7707
:10E2F00020696E7465727275707420566563746FF0
:10E30000727300593D506F727420626C696E6B00BD
:10E310002A0011241FBECFEFD1E2DEBFCDBF01E046
:10E320000CBF12E0A0E0B2E0EEE1FDEF03E00BBFB6
:10E3300002C007900D92A030B107D9F712E0A0E01B
:10E34000B2E001C01D92AE30B107E1F70F9460F367
:10E350000D948DFE01E20EBF0FEF0DBF11241FBE05
:10E360000D9460F30D9400F020E030E040ED57E0B4
:10E3700005C0FA013197F1F72F5F3F4F2817390792
:10E38000C0F308959C01260F311DC901A0E0B0E043
:10E390002F5F3F4FABBFFC018791882361F08093D3
:10E3A000C6008091C00086FFFCCF8091C0008064D1
:10E3B0008093C000EACF08958DE08093C6008091DD
:10E3C000C00086FFFCCF8091C00080648093C000B5
:10E3D0008AE08093C6008091C00086FFFCCF8091C8
:10E3E000C00080648093C00008950F94C2F10F9420
:10E3F000DCF10895FC019081992359F09093C600B7
:10E400008091C00086FFFCCF8091C0008064809323
:10E41000C0003196992379F70895282F982F929567
:10E420009F70892F805D8A3308F0895F8093C600D2
:10E430008091C00086FFFCCF8091C00080648093F3
:10E44000C000822F8F70982F905D9A3308F0995FEB
:10E450009093C6008091C00086FFFCCF8091C000E1
:10E4600080648093C00008959C01FB01853691056E
:10E470001CF46330710594F0C90164E670E00F94F8
:10E480002EFE605D7F4F6093C6008091C00086FFC6
:10E49000FCCF8091C00080648093C0002B30310598
:10E4A00014F43297B4F0C90164E670E00F942EFEC4
:10E4B0006AE070E00F942EFE605D7F4F6093C600AF
:10E4C0008091C00086FFFCCF8091C0008064809363
:10E4D000C000C9016AE070E00F942EFEC0968093E0
:10E4E000C6008091C00086FFFCCF8091C000806490
:10E4F0008093C00008951F93182F8EE692EE60E07F
:10E500000F94C2F11093C6008091C00086FFFCCF2B
:10E510008091C00080648093C0000F94DCF11F9153
:10E5200008952F923F924F925F926F927F928F92B7
:10E530009F92AF92BF92CF92DF92EF92FF920F9392
:10E540001F93DF93CF93CDB7DEB762970FB6F894E2
:10E55000DEBF0FBECDBF382E622ECA01DB015C01CB
:10E560006D01772420E2222E2E010894411C511CBB
:10E570008BC081E0A81680E0B80681E0C80680E084
:10E58000D80628F0C601AA27BB270F940DF2BB2797
:10E59000AD2D9C2D8B2D0F940DF28A2D0F940DF225
:10E5A0002092C6008091C00086FFFCCF8091C00001
:10E5B00080648093C0009DE29093C6008091C0006B
:10E5C00086FFFCCF8091C00080648093C0002092C1
:10E5D000C6008091C00086FFFCCF8091C00080649F
:10E5E0008093C00019828601750188249924A1E0D6
:10E5F0003A1651F03A1620F0B2E03B1661F409C029
:10E600000BBFF701779007C0C7010F9477FE782EF4
:10E6100002C0F7017080872D0F940DF22092C60082
:10E620008091C00086FFFCCF8091C0008064809301
:10E63000C000872D8052F401EF70F0708F3520F408
:10E64000E40DF51D708204C0E40DF51D8EE280839B
:10E650000894E11CF11C011D111D0894811C911CE2
:10E6600090E18916910409F0C2CF80E190E0A0E02A
:10E67000B0E0A80EB91ECA1EDB1E198AC2010F9493
:10E68000FAF10F94DCF16A94662009F072CF629679
:10E690000FB6F894DEBF0FBECDBFCF91DF911F91B3
:10E6A0000F91FF90EF90DF90CF90BF90AF909F9031
:10E6B0008F907F906F905F904F903F902F90089534
:10E6C0002F923F924F925F926F927F928F929F9282
:10E6D000AF92BF92CF92DF92EF92FF920F931F9370
:10E6E000DF93CF93CDB7DEB7CD53D1400FB6F894BB
:10E6F000DEBF0FBECDBF01E20EBF0FEF0DBF94B75F
:10E70000F894A89514BE80916000886180936000A1
:10E7100010926000789493FF05C0E0910002F091A0
:10E7200001021995279A2F9A8091C00082608093E8
:10E73000C00080E18093C40088E18093C1000000A4
:10E74000EE24FF24870144E0A42EB12CCC24DD2448
:10E7500024C0C5010197F1F70894E11CF11C011DCB
:10E76000111D21E2E2162EE4F20620E0020720E06D
:10E77000120718F031E0C32ED12CC801B70127ECE5
:10E780003BE140E050E00F9441FE611571058105C9
:10E79000910519F485B1805885B98091C00087FD35
:10E7A00003C0C114D104A9F2A6014F5F5F4FC25E3E
:10E7B000DE4F59834883CE51D140C25EDE4F8881FF
:10E7C0009981CE51D140019711F00D9410FEC05D9A
:10E7D000DE4F19821882C053D14060E0C15DDE4F28
:10E7E0001882CF52D14088249924C35DDE4F19820C
:10E7F0001882CD52D140C05EDE4F188219821A8233
:10E800001B82C052D140CE5CDE4F188219821A8220
:10E810001B82C253D140EE24FF2487010BBFF701B6
:10E8200007911691C45CDE4F19830883CC53D14005
:10E830000D940BFEC25EDE4F28813981CE51D1404E
:10E840002130310509F52091C600C25EDE4F1982E4
:10E850001882CE51D14022C02F5F3F4F4F4F5F4FA4
:10E86000213082E138078AE7480780E0580780F0C6
:10E87000C45CDE4FE881F981CC53D140EF5FFF4F9C
:10E8800019F0EE27FF27099420E030E040E050E047
:10E890008091C00087FFE0CF2091C600C35DDE4FAE
:10E8A00048815981CD52D1404F5F5F4FC35DDE4FEC
:10E8B00059834883CD52D140213209F063C64A3092
:10E8C000510508F05FC60894811C911C53E0851621
:10E8D000910409F059C600E010E018C081E280936D
:10E8E000C6008091C00086FFFCCF8091C00080648C
:10E8F0008093C0002F5F3F4F2931310579F70F9486
:10E90000DCF10F5F1F4F0530110519F020E030E0FA
:10E91000E5CF10920A0210920B0210920C02109294
:10E920000D02109206021092070210920802109235
:10E930000902109202021092030210920402109235
:10E9400005028FEE90EE60E00F94F5F180E191EE1C
:10E9500060E00F94C2F18091C00087FFFCCF9091DE
:10E96000C600903608F09F759032B8F09093C600BC
:10E970008091C00086FFFCCF8091C00080648093AE
:10E98000C000A0E2A093C6008091C00086FFFCCF2B
:10E990008091C00080648093C000983409F4D7C18E
:10E9A0009934B8F4923409F459C1933458F490333B
:10E9B00019F1903308F4E3C59F33A1F1903409F0C5
:10E9C000DEC5BDC0953409F470C1963409F0D7C5D1
:10E9D00098C1923509F42BC2933538F49C3409F46C
:10E9E000F5C1913509F0CBC518C2963509F445C279
:10E9F000993509F0C4C567C483E792EE62E00F94CD
:10EA0000F5F110920602109207021092080210927D
:10EA1000090210920A0210920B0210920C0210923C
:10EA20000D0213C18FE792EE62E00F94F5F18FEEC5
:10EA300090EE60E00F94F5F181E291EE60E00F94CA
:10EA4000C2F187EB91EE60E00F94F5F180E391EE77
:10EA500060E00F94C2F184EE90EE60E00F94F5F167
:10EA60008FE391EE60E00F94C2F186E090E061E008
:10EA700070E00F9434F20F94DCF18DE591EE60E0DC
:10EA80000F94C2F189EC91EE60E00F94F5F18EE401
:10EA900091EE60E00F94C2F183EC91EE60E00F9490
:10EAA000F5F18CE691EE60E00F94C2F18EE10F94E7
:10EAB0000DF288E90F940DF281E00F940DF20F949E
:10EAC000DCF18BE791EE60E00F94C2F119E0E0E039
:10EAD000F0E010935700E4918E2F0F940DF20F94F5
:10EAE000DCF18AE891EE60E00F94C2F1E3E0F0E03F
:10EAF00010935700E4918E2F0F940DF20F94DCF1D8
:10EB000089E991EE60E00F94C2F1E2E0F0E0109349
:10EB10005700E4918E2F0F940DF20F94DCF188EAE8
:10EB200091EE60E00F94C2F1E1E0F0E01093570045
:10EB30001491812F0F940DF20F94DCF107CF8BE825
:10EB400092EE62E00F94F5F18BE492EE60E00F94A8
:10EB5000F5F10F94DCF100E010E019C0C8016F2D51
:10EB60000F947FFEFF2031F489E492EE60E00F9471
:10EB7000C2F10BC0F092C6008091C00086FFFCCFAE
:10EB80008091C00080648093C0000F5F1F4FC80158
:10EB900081519F41A0E0B0E0ABBFFC01F790BAE229
:10EBA000FB1621F0E2E000301E07C1F60F94DCF105
:10EBB0000F94DCF187E592EE60E00F94F5F10F948D
:10EBC000DCF1CC24DD2400E010E01EC0C8010F946D
:10EBD00077FEF82E882331F489E492EE60E00F94FA
:10EBE000C2F10BC08093C6008091C00086FFFCCFAD
:10EBF0008091C00080648093C000FE1419F00894D6
:10EC0000C11CD11C0F5F1F4FC80181519F41A0E063
:10EC1000B0E0ABBFFC01E790FAE2EF1621F022E092
:10EC20000030120799F60F94DCF10F94DCF182E6C4
:10EC300092EE60E00F94C2F1C60161E070E00F94C3
:10EC400034F20F94DCF10F94DCF110920202109276
:10EC50000302109204021092050278CE89E992EE26
:10EC600062E00F94F5F1279A2F9A16C02F9880E052
:10EC700090E0E0EDF7E03197F1F7019684369105E9
:10EC8000C1F72F9A80E090E0E0EDF7E03197F1F7DF
:10EC9000019684369105C1F78091C00087FFE6CFC9
:10ECA0008091C00087FFFCCF64C485EA92EE62E0E9
:10ECB0000F94F5F140910202509103026091040219
:10ECC0007091050281E020E10F9491F2809102029F
:10ECD00090910302A0910402B091050280509F4FD1
:10ECE000AF4FBF4F8093020290930302A0930402A0
:10ECF000B093050280509041A040B04008F426CE69
:10ED0000A4CF83EB92EE62E00F94F5F140910602FE
:10ED100050910702609108027091090280E020E1A1
:10ED20000F9491F28091060290910702A09108023F
:10ED3000B091090280509F4FAF4FBF4F80930602A2
:10ED400090930702A0930802B0930902FFCD80ECD4
:10ED500092EE62E00F94F5F183E792EE60E00F949B
:10ED6000F5F18FE792EE60E00F94F5F18BE892EE0B
:10ED700060E00F94F5F189E992EE60E00F94F5F10F
:10ED800085EA92EE60E00F94F5F183EB92EE60E09D
:10ED90000F94F5F180EC92EE60E00F94F5F187ECC2
:10EDA00092EE60E00F94F5F188ED92EE60E00F9442
:10EDB000F5F18FED92EE60E00F94F5F18AEE92EEB0
:10EDC00060E00F94F5F183E093EEBDCD87EC92EE19
:10EDD00062E00F94F5F181E40F947BF282E40F94EA
:10EDE0007BF283E40F947BF284E40F947BF285E45E
:10EDF0000F947BF286E40F947BF287E40F947BF20E
:10EE000088E40F947BF28AE40F947BF28BE40F94F6
:10EE10007BF28CE40F947BF299CD88ED92EE62E068
:10EE20000F94F5F1772473948824992409C48FED05
:10EE300092EE62E00F94F5F140910A0250910B02BC
:10EE400060910C0270910D0282E020E10F9491F22A
:10EE500080910A0290910B02A0910C02B0910D02D8
:10EE600080509F4FAF4FBF4F80930A0290930B0289
:10EE7000A0930C02B0930D0269CD8AEE92EE62E08F
:10EE80000F94F5F184EE90EE60E00F94F5F18FECC5
:10EE900091EE60E00F94F5F1662477244301CC5D98
:10EEA000DE4F19821882C452D140D401C301B695F5
:10EEB000A79597958795CA5DDE4F88839983AA8326
:10EEC000BB83C652D140CC5DDE4FA881B981C4520C
:10EED000D1401196CC5DDE4FB983A883C452D14096
:10EEE000CD0162E070E00F9434F2B0E2B093C6005E
:10EEF0008091C00086FFFCCF8091C0008064809329
:10EF0000C000EDE2E093C6008091C00086FFFCCF18
:10EF10008091C00080648093C000F0E2F093C6004E
:10EF20008091C00086FFFCCF8091C00080648093F8
:10EF3000C000CA5DDE4FE880F9800A811B81C6529D
:10EF4000D140BB27A12F902F8F2D0F940DF2CA5DBA
:10EF5000DE4F8881C652D1400F940DF2B0E2FB2EF5
:10EF6000F092C6008091C00086FFFCCF8091C00067
:10EF700080648093C0000DE30093C6008091C000C0
:10EF800086FFFCCF8091C00080648093C00010E2B7
:10EF90001093C6008091C00086FFFCCF8091C00016
:10EFA00080648093C0008BBEF3012791C65DDE4F65
:10EFB0002883CA52D140A22EBB24CC24DD2408943D
:10EFC000611C711C811C911C8BBEF3018791282E42
:10EFD0003324442455240894611C711C811C911C09
:10EFE0008BBEF3013791C55DDE4F3883CB52D140E4
:10EFF0000894611C711C811C911C8BBEF30147910C
:10F00000C45DDE4F4883CC52D140ADEFEA2EAFEF66
:10F01000FA2EAFEF0A2FAFEF1A2F6E0C7F1C801E57
:10F02000911E142D032DF22CEE24EA0CFB1C0C1D5A
:10F030001D1D0F940DF220E22093C6008091C000A8
:10F0400086FFFCCF8091C00080648093C000C65DC5
:10F05000DE4F8881CA52D1400F940DF230E23093D6
:10F06000C6008091C00086FFFCCF8091C000806404
:10F070008093C000C45DDE4F8881CC52D1400F9494
:10F080000DF240E24093C6008091C00086FFFCCFA5
:10F090008091C00080648093C000C55DDE4F888190
:10F0A000CB52D1400F940DF250E25093C6008091A4
:10F0B000C00086FFFCCF8091C00080648093C000B8
:10F0C0008FEFE8168FEFF80680E0080780E018075A
:10F0D00031F484E092EE60E00F94C2F1DFC0D80119
:10F0E000C7018070907CA070B0708050904CA040A0
:10F0F000B040D1F52FEF3FE340E050E0E222F322B1
:10F1000004231523CA5DDE4FA880B980CA80DB8046
:10F11000C652D140AE0CBF1CC01ED11EAA0CBB1CD7
:10F12000CC1CDD1C8EE092EE60E00F94C2F1BB2798
:10F13000A12F902F8F2D0F940DF28E2D0F940DF285
:10F1400030E23093C6008091C00086FFFCCF8091F2
:10F15000C00080648093C0004EE34093C60080915D
:10F16000C00086FFFCCF87C08EE09EEFA0E0B0E03D
:10F17000E822F9220A231B239CE0E91694E9F90608
:10F1800090E0090790E0190709F088C0C45DDE4FE0
:10F19000A881CC52D140EA2EFF2400E010E0102FCD
:10F1A0000F2DFE2CEE24C55DDE4FB881CB52D14031
:10F1B000EB0EF11C011D111DD601C501817090706F
:10F1C000A070B070DC0199278827E80EF91E0A1F8D
:10F1D0001B1F20EF30E040E050E0A222B322C42207
:10F1E000D52241E1AA0CBB1CCC1CDD1C4A95D1F7F1
:10F1F000EA0CFB1C0C1D1D1D81E090E0A0E0B0E0BE
:10F20000282239224A225B2235E1220C331C441C7D
:10F21000551C3A95D1F7E20CF31C041D151D57013E
:10F220006801AA0CBB1CCC1CDD1C85E192EE60E0E1
:10F230000F94C2F1C801AA27BB270F940DF2BB2778
:10F24000A12F902F8F2D0F940DF28E2D0F940DF274
:10F2500090E29093C6008091C00086FFFCCF809121
:10F26000C00080648093C000AEE3A093C60080918C
:10F27000C00086FFFCCF8091C00080648093C000F6
:10F28000C601AA27BB270F940DF2BB27AD2D9C2DDD
:10F290008B2D0F940DF28A2D0F940DF20F94DCF14B
:10F2A000CC5DDE4FE881F981C452D140F99709F471
:10F2B0004DCBF4E0EF2EF12C012D112D6E0C7F1CA7
:10F2C000801E911EF2CD83E093EE62E00F94F5F183
:10F2D0008AE192EE60E00F94C2F18091C00087FF56
:10F2E000FCCF1091C6001F751093C6008091C0001E
:10F2F00086FFFCCF8091C00080648093C0000F9493
:10F30000DCF1812F81548A3108F036C1163409F4BA
:10F3100095C0173490F4133409F44EC0143430F40B
:10F320001134F1F0123409F01DC130C0143409F465
:10F3300059C0153409F016C16BC01A3409F4C4C0A1
:10F340001B3438F4173409F48FC0183409F00AC19B
:10F35000A1C01B3409F4D2C01C3409F003C1E8C0B9
:10F360008FEF81B90DC082B1809582B980E090E0C5
:10F37000E0EDF7E03197F1F70196883C9105C1F790
:10F380008091C00087FFEFCF12B8EFC08FEF84B934
:10F390000DC085B1809585B980E090E0E0EDF7E0A3
:10F3A0003197F1F70196883C9105C1F78091C00033
:10F3B00087FFEFCF15B8D9C08FEF87B90DC088B1DF
:10F3C000809588B980E090E0E0EDF7E03197F1F7C3
:10F3D0000196883C9105C1F78091C00087FFEFCF6F
:10F3E00018B8C3C08FEF8AB90DC08BB180958BB9A7
:10F3F00080E090E0E0EDF7E03197F1F70196883C8E
:10F400009105C1F78091C00087FFEFCF1BB8ADC059
:10F410008FEF8DB90DC08EB180958EB980E090E0F0
:10F42000E0EDF7E03197F1F70196883C9105C1F7DF
:10F430008091C00087FFEFCF1EB897C08FEF80BBD1
:10F440000DC081B3809581BB80E090E0E0EDF7E0F6
:10F450003197F1F70196883C9105C1F78091C00082
:10F4600087FFEFCF11BA81C08FEF83BB0DC084B38C
:10F47000809584BB80E090E0E0EDF7E03197F1F714
:10F480000196883C9105C1F78091C00087FFEFCFBE
:10F4900014BA6BC08FEF809301010FC080910201FD
:10F4A00080958093020180E090E0E0EDF7E03197F5
:10F4B000F1F70196883C9105C1F78091C00087FF64
:10F4C000EDCF1092020151C08FEF809304010FC065
:10F4D0008091050180958093050180E090E0E0ED4A
:10F4E000F7E03197F1F70196883C9105C1F78091DB
:10F4F000C00087FFEDCF1092050137C08FEF8093DA
:10F5000007010FC08091080180958093080180E079
:10F5100090E0E0EDF7E03197F1F70196883C910536
:10F52000C1F78091C00087FFEDCF109208011DC088
:10F530008FEF80930A010FC080910B01809580931B
:10F540000B0180E090E0E0EDF7E03197F1F70196F4
:10F55000883C9105C1F78091C00087FFEDCF1092E4
:10F560000B0103C085E292EEEEC98091C00087FFD7
:10F57000FCCF8091C600EAC988E392EEE4C98CE131
:10F5800091EEE1C988249924933011F1943028F444
:10F59000913089F09230B8F408C0953061F195301F
:10F5A000F0F0963009F048C043C02B3109F042C951
:10F5B00091E06BE13FC96227C15DDE4F2883CF52E6
:10F5C000D14092E037C9B22FA0E0622793E032C960
:10F5D000822F90E0A82BB92B622794E02BC92E3004
:10F5E00009F039C3622795E0C05DDE4F19821882A9
:10F5F000C053D1401FC9E1E0F0E0EC0FFD1FC05D3A
:10F60000DE4F08811981C053D140E00FF11F2083E4
:10F610000F5F1F4FC05DDE4F19830883C053D14079
:10F6200062270A171B0709F005C9D80196E002C92D
:10F63000261709F010C303C0973009F0FBC87724E0
:10F640009981933109F412C19431C8F4963009F4C8
:10F65000D8C0973050F4923009F406C1933009F4C1
:10F660006DC0913009F059C253C0913109F477C08F
:10F67000923108F0BBC0903109F04FC2F5C098310B
:10F6800009F487C0993150F4953109F4EFC09531F0
:10F6900008F4C6C1963109F040C2C2C19A3109F4DA
:10F6A0006CC09A3108F491C09B3109F45BC09D3164
:10F6B00009F033C29D81903359F48F81882311F46E
:10F6C0009EE11CC0813011F091E018C098E916C08D
:10F6D000892F807591F0903539F4E0E0F0E089E011
:10F6E0008093570094910AC0983539F4E3E0F0E034
:10F6F00089E080935700949101C090E01A821B82A8
:10F700008D818C831D829E831F8227E030E009C299
:10F710001A8288E08B8381E48C8386E58D8382E581
:10F720008E8389E48F8383E5888780E589878FE5E9
:10F730008A8782E38B872BE030E0F3C18A818139AD
:10F7400041F0823941F0803911F48FE005C080E04A
:10F7500003C082E001C08AE01A828B8344C0772410
:10F76000739482C08D81882311F48EE12CC0813086
:10F7700011F081E028C088E926C01A82E1E0F0E0BB
:10F7800089E08093570084918B831C8224E030E0D1
:10F79000C8C18B81803589F48C81883039F4E2E0EE
:10F7A000F0E089E08093570084910DC0E0E0F0E044
:10F7B00089E080935700849106C0E3E0F0E089E09F
:10F7C0008093570084911A82DFCF8D81836C99E0FA
:10F7D000E1E0F0E0082E90935700E89507B600FCB2
:10F7E000FDCF1A821B8223E030E09BC180EC8A832C
:10F7F000CE5CDE4F188219821A821B82C253D1401E
:10F800008EC18A8190E0A0E0B0E0582F44273327D2
:10F8100022278B8190E0A0E0B0E0DC0199278827C7
:10F82000282B392B4A2B5B2B8D8190E0A0E0B0E098
:10F83000282B392B4A2B5B2B8C8190E0A0E0B0E089
:10F84000BA2FA92F982F8827282B392B4A2B5B2BCF
:10F85000220F331F441F551FC05EDE4F288339839C
:10F860004A835B83C052D1401A8259C13A81C95C34
:10F87000DE4F3883C753D140CA5CDE4F1882C6536F
:10F88000D1408B81C82EDD24CA5CDE4F488159816E
:10F89000C653D140C42AD52A933109F082C0CE5C28
:10F8A000DE4F88819981AA81BB81C253D1408050AB
:10F8B000904CA340B04030F583E0CE5CDE4FE88052
:10F8C000F9800A811B81C253D140F70100935B008C
:10F8D00080935700E89507B600FCFDCFCE5CDE4F65
:10F8E000088119812A813B81C253D14000501F4FAA
:10F8F0002F4F3F4FCE5CDE4F088319832A833B8313
:10F90000C253D140C05EDE4F488159816A817B81FC
:10F91000C052D140DE011B9631E08C9111962C91A2
:10F9200011971296C75CDE4F2883C953D140C85C3B
:10F93000DE4F1882C853D14090E0C85CDE4FE881AA
:10F94000F981C853D1408E2B9F2B0C01FA01609393
:10F950005B0030935700E89511244E5F5F4F6F4F67
:10F960007F4F0EEFE02E0FEFF02ECE0CDF1CC114F8
:10F97000D10499F685E0C05EDE4F088119812A81A5
:10F980003B81C052D140F80120935B008093570027
:10F99000E89507B600FCFDCF81E180935700E8951C
:10F9A00035C0C05EDE4F88819981AA81BB81C0527B
:10F9B000D140B695A795979587957C018601ABE0D8
:10F9C000AA2EB12CAC0EBD1E0BC0D5016D915D01F0
:10F9D000C7010F947FFE0894E11CF11C01501040F8
:10F9E0000115110591F7A60160E070E0440F551F65
:10F9F000661F771FC05EDE4FE880F9800A811B8199
:10FA0000C052D1404E0D5F1D601F711F1A82C05E33
:10FA1000DE4F488359836A837B83C052D1407FC0C5
:10FA2000FA80C55CDE4FF882CB53D140C65CDE4F16
:10FA30001882CA53D1408B81C82EDD24C65CDE4FAC
:10FA400008811981CA53D140C02AD12A1A828981DA
:10FA5000BE016D5F7F4F843121F59601C05EDE4FA0
:10FA6000E880F9800A811B81C052D1400BBFF701A9
:10FA700087919691DB018C9311969C936E5F7F4FDB
:10FA8000D801C7010296A11DB11DC05EDE4F88835B
:10FA90009983AA83BB83C052D14022503040F1F6F3
:10FAA00036C0C05EDE4F288139814A815B81C052F9
:10FAB000D1400894C108D108760100E010E0089414
:10FAC000C11CD11C0894E11CF11C011D111DE20E8A
:10FAD000F31E041F151F21BDBB27A52F942F832FB5
:10FAE00082BD2F5F3F4F4F4F5F4FF89A80B5DB01CC
:10FAF0008D93BD012E153F054007510761F7C05E8C
:10FB0000DE4F288339834A835B83C052D1409601FC
:10FB10002D5F3F4FFB01108204C080EC8A8322E0FE
:10FB200030E08BE18093C6008091C00086FFFCCF5F
:10FB30008091C00080648093C000C15DDE4FF88179
:10FB4000CF52D140F093C6008091C00086FFFCCF19
:10FB50008091C00080648093C000432F3093C60022
:10FB60008091C00086FFFCCF8091C00080648093AC
:10FB7000C000922F2093C6008091C00086FFFCCF6A
:10FB80008091C00080648093C0008EE08093C600A6
:10FB90008091C00086FFFCCF8091C000806480937C
:10FBA000C00065E1C15DDE4FE880CF52D1406E25D7
:10FBB00069276427FE01319610C090819093C6009A
:10FBC0008091C00086FFFCCF31968091C000806498
:10FBD0008093C0006927215030402115310569F715
:10FBE0006093C6008091C00086FFFCCF8091C0006A
:10FBF00080648093C00085B1805885B9772081F4F6
:10FC0000C15DDE4F0881CF52D1400F5FC15DDE4F35
:10FC10000883CF52D14090E0A0E0B0E00D941AF4F8
:10FC200027982F9880E090E020ED37E0F901319798
:10FC3000F1F7019684369105C9F700008091C00064
:10FC40008D7F8093C00081E180935700E895EE2777
:10FC5000FF270994FFCF90E00D941AF497FB092E2B
:10FC600007260AD077FD04D02ED006D000201AF443
:10FC7000709561957F4F0895F6F7909581959F4F08
:10FC80000895A1E21A2EAA1BBB1BFD010DC0AA1FDD
:10FC9000BB1FEE1FFF1FA217B307E407F50720F0F5
:10FCA000A21BB30BE40BF50B661F771F881F991F70
:10FCB0001A9469F760957095809590959B01AC01B9
:10FCC000BD01CF010895AA1BBB1B51E107C0AA1FAC
:10FCD000BB1FA617B70710F0A61BB70B881F991FED
:10FCE0005A95A9F780959095BC01CD010895F99991
:10FCF000FECF92BD81BDF89A992780B50895262F31
:10FD0000F999FECF1FBA92BD81BD20BD0FB6F89400
:0EFD1000FA9AF99A0FBE01960895F894FFCF63
:040000033000E000E9
:00000001FF
